{
  "_format": "hh-sol-artifact-1",
  "contractName": "Nft",
  "sourceName": "contracts/NFT.sol",
  "abi": [
    {
      "inputs": [
        {
          "internalType": "string",
          "name": "name",
          "type": "string"
        },
        {
          "internalType": "string",
          "name": "symbol",
          "type": "string"
        },
        {
          "internalType": "address",
          "name": "initialOwner",
          "type": "address"
        }
      ],
      "stateMutability": "nonpayable",
      "type": "constructor"
    },
    {
      "inputs": [
        {
          "internalType": "address",
          "name": "sender",
          "type": "address"
        },
        {
          "internalType": "uint256",
          "name": "tokenId",
          "type": "uint256"
        },
        {
          "internalType": "address",
          "name": "owner",
          "type": "address"
        }
      ],
      "name": "ERC721IncorrectOwner",
      "type": "error"
    },
    {
      "inputs": [
        {
          "internalType": "address",
          "name": "operator",
          "type": "address"
        },
        {
          "internalType": "uint256",
          "name": "tokenId",
          "type": "uint256"
        }
      ],
      "name": "ERC721InsufficientApproval",
      "type": "error"
    },
    {
      "inputs": [
        {
          "internalType": "address",
          "name": "approver",
          "type": "address"
        }
      ],
      "name": "ERC721InvalidApprover",
      "type": "error"
    },
    {
      "inputs": [
        {
          "internalType": "address",
          "name": "operator",
          "type": "address"
        }
      ],
      "name": "ERC721InvalidOperator",
      "type": "error"
    },
    {
      "inputs": [
        {
          "internalType": "address",
          "name": "owner",
          "type": "address"
        }
      ],
      "name": "ERC721InvalidOwner",
      "type": "error"
    },
    {
      "inputs": [
        {
          "internalType": "address",
          "name": "receiver",
          "type": "address"
        }
      ],
      "name": "ERC721InvalidReceiver",
      "type": "error"
    },
    {
      "inputs": [
        {
          "internalType": "address",
          "name": "sender",
          "type": "address"
        }
      ],
      "name": "ERC721InvalidSender",
      "type": "error"
    },
    {
      "inputs": [
        {
          "internalType": "uint256",
          "name": "tokenId",
          "type": "uint256"
        }
      ],
      "name": "ERC721NonexistentToken",
      "type": "error"
    },
    {
      "inputs": [
        {
          "internalType": "address",
          "name": "owner",
          "type": "address"
        }
      ],
      "name": "OwnableInvalidOwner",
      "type": "error"
    },
    {
      "inputs": [
        {
          "internalType": "address",
          "name": "account",
          "type": "address"
        }
      ],
      "name": "OwnableUnauthorizedAccount",
      "type": "error"
    },
    {
      "anonymous": false,
      "inputs": [
        {
          "indexed": true,
          "internalType": "address",
          "name": "owner",
          "type": "address"
        },
        {
          "indexed": true,
          "internalType": "address",
          "name": "approved",
          "type": "address"
        },
        {
          "indexed": true,
          "internalType": "uint256",
          "name": "tokenId",
          "type": "uint256"
        }
      ],
      "name": "Approval",
      "type": "event"
    },
    {
      "anonymous": false,
      "inputs": [
        {
          "indexed": true,
          "internalType": "address",
          "name": "owner",
          "type": "address"
        },
        {
          "indexed": true,
          "internalType": "address",
          "name": "operator",
          "type": "address"
        },
        {
          "indexed": false,
          "internalType": "bool",
          "name": "approved",
          "type": "bool"
        }
      ],
      "name": "ApprovalForAll",
      "type": "event"
    },
    {
      "anonymous": false,
      "inputs": [
        {
          "indexed": false,
          "internalType": "uint256",
          "name": "_fromTokenId",
          "type": "uint256"
        },
        {
          "indexed": false,
          "internalType": "uint256",
          "name": "_toTokenId",
          "type": "uint256"
        }
      ],
      "name": "BatchMetadataUpdate",
      "type": "event"
    },
    {
      "anonymous": false,
      "inputs": [
        {
          "indexed": false,
          "internalType": "uint256",
          "name": "_tokenId",
          "type": "uint256"
        }
      ],
      "name": "MetadataUpdate",
      "type": "event"
    },
    {
      "anonymous": false,
      "inputs": [
        {
          "indexed": true,
          "internalType": "address",
          "name": "previousOwner",
          "type": "address"
        },
        {
          "indexed": true,
          "internalType": "address",
          "name": "newOwner",
          "type": "address"
        }
      ],
      "name": "OwnershipTransferred",
      "type": "event"
    },
    {
      "anonymous": false,
      "inputs": [
        {
          "indexed": true,
          "internalType": "address",
          "name": "from",
          "type": "address"
        },
        {
          "indexed": true,
          "internalType": "address",
          "name": "to",
          "type": "address"
        },
        {
          "indexed": true,
          "internalType": "uint256",
          "name": "tokenId",
          "type": "uint256"
        }
      ],
      "name": "Transfer",
      "type": "event"
    },
    {
      "inputs": [
        {
          "internalType": "address",
          "name": "",
          "type": "address"
        }
      ],
      "name": "addressToEarnings",
      "outputs": [
        {
          "internalType": "uint256",
          "name": "",
          "type": "uint256"
        }
      ],
      "stateMutability": "view",
      "type": "function"
    },
    {
      "inputs": [
        {
          "internalType": "address",
          "name": "to",
          "type": "address"
        },
        {
          "internalType": "uint256",
          "name": "tokenId",
          "type": "uint256"
        }
      ],
      "name": "approve",
      "outputs": [],
      "stateMutability": "nonpayable",
      "type": "function"
    },
    {
      "inputs": [
        {
          "internalType": "address",
          "name": "owner",
          "type": "address"
        }
      ],
      "name": "balanceOf",
      "outputs": [
        {
          "internalType": "uint256",
          "name": "",
          "type": "uint256"
        }
      ],
      "stateMutability": "view",
      "type": "function"
    },
    {
      "inputs": [
        {
          "internalType": "uint256",
          "name": "tokenId",
          "type": "uint256"
        },
        {
          "internalType": "address",
          "name": "user",
          "type": "address"
        }
      ],
      "name": "checkAccess",
      "outputs": [
        {
          "internalType": "bool",
          "name": "",
          "type": "bool"
        }
      ],
      "stateMutability": "view",
      "type": "function"
    },
    {
      "inputs": [
        {
          "internalType": "uint256",
          "name": "tokenId",
          "type": "uint256"
        }
      ],
      "name": "getApproved",
      "outputs": [
        {
          "internalType": "address",
          "name": "",
          "type": "address"
        }
      ],
      "stateMutability": "view",
      "type": "function"
    },
    {
      "inputs": [
        {
          "internalType": "address",
          "name": "creator",
          "type": "address"
        }
      ],
      "name": "getCreatorEarnings",
      "outputs": [
        {
          "internalType": "uint256",
          "name": "",
          "type": "uint256"
        }
      ],
      "stateMutability": "view",
      "type": "function"
    },
    {
      "inputs": [],
      "name": "getNftFeed",
      "outputs": [
        {
          "internalType": "uint256[]",
          "name": "",
          "type": "uint256[]"
        }
      ],
      "stateMutability": "view",
      "type": "function"
    },
    {
      "inputs": [
        {
          "internalType": "uint256",
          "name": "",
          "type": "uint256"
        },
        {
          "internalType": "address",
          "name": "",
          "type": "address"
        }
      ],
      "name": "hasAccess",
      "outputs": [
        {
          "internalType": "bool",
          "name": "",
          "type": "bool"
        }
      ],
      "stateMutability": "view",
      "type": "function"
    },
    {
      "inputs": [
        {
          "internalType": "address",
          "name": "owner",
          "type": "address"
        },
        {
          "internalType": "address",
          "name": "operator",
          "type": "address"
        }
      ],
      "name": "isApprovedForAll",
      "outputs": [
        {
          "internalType": "bool",
          "name": "",
          "type": "bool"
        }
      ],
      "stateMutability": "view",
      "type": "function"
    },
    {
      "inputs": [
        {
          "internalType": "address",
          "name": "_to",
          "type": "address"
        },
        {
          "internalType": "uint256",
          "name": "tokenId",
          "type": "uint256"
        },
        {
          "internalType": "string",
          "name": "_uri",
          "type": "string"
        },
        {
          "internalType": "uint256",
          "name": "price",
          "type": "uint256"
        }
      ],
      "name": "mint",
      "outputs": [],
      "stateMutability": "nonpayable",
      "type": "function"
    },
    {
      "inputs": [],
      "name": "name",
      "outputs": [
        {
          "internalType": "string",
          "name": "",
          "type": "string"
        }
      ],
      "stateMutability": "view",
      "type": "function"
    },
    {
      "inputs": [
        {
          "internalType": "uint256",
          "name": "",
          "type": "uint256"
        }
      ],
      "name": "nftFeed",
      "outputs": [
        {
          "internalType": "uint256",
          "name": "",
          "type": "uint256"
        }
      ],
      "stateMutability": "view",
      "type": "function"
    },
    {
      "inputs": [
        {
          "internalType": "uint256",
          "name": "",
          "type": "uint256"
        }
      ],
      "name": "nfts",
      "outputs": [
        {
          "internalType": "uint256",
          "name": "tokenId",
          "type": "uint256"
        },
        {
          "internalType": "address",
          "name": "creator",
          "type": "address"
        },
        {
          "internalType": "string",
          "name": "tokenURI",
          "type": "string"
        },
        {
          "internalType": "uint256",
          "name": "price",
          "type": "uint256"
        }
      ],
      "stateMutability": "view",
      "type": "function"
    },
    {
      "inputs": [],
      "name": "owner",
      "outputs": [
        {
          "internalType": "address",
          "name": "",
          "type": "address"
        }
      ],
      "stateMutability": "view",
      "type": "function"
    },
    {
      "inputs": [
        {
          "internalType": "uint256",
          "name": "tokenId",
          "type": "uint256"
        }
      ],
      "name": "ownerOf",
      "outputs": [
        {
          "internalType": "address",
          "name": "",
          "type": "address"
        }
      ],
      "stateMutability": "view",
      "type": "function"
    },
    {
      "inputs": [
        {
          "internalType": "uint256",
          "name": "tokenId",
          "type": "uint256"
        }
      ],
      "name": "purchaseNFT",
      "outputs": [],
      "stateMutability": "payable",
      "type": "function"
    },
    {
      "inputs": [],
      "name": "renounceOwnership",
      "outputs": [],
      "stateMutability": "nonpayable",
      "type": "function"
    },
    {
      "inputs": [
        {
          "internalType": "address",
          "name": "from",
          "type": "address"
        },
        {
          "internalType": "address",
          "name": "to",
          "type": "address"
        },
        {
          "internalType": "uint256",
          "name": "tokenId",
          "type": "uint256"
        }
      ],
      "name": "safeTransferFrom",
      "outputs": [],
      "stateMutability": "nonpayable",
      "type": "function"
    },
    {
      "inputs": [
        {
          "internalType": "address",
          "name": "from",
          "type": "address"
        },
        {
          "internalType": "address",
          "name": "to",
          "type": "address"
        },
        {
          "internalType": "uint256",
          "name": "tokenId",
          "type": "uint256"
        },
        {
          "internalType": "bytes",
          "name": "data",
          "type": "bytes"
        }
      ],
      "name": "safeTransferFrom",
      "outputs": [],
      "stateMutability": "nonpayable",
      "type": "function"
    },
    {
      "inputs": [
        {
          "internalType": "address",
          "name": "operator",
          "type": "address"
        },
        {
          "internalType": "bool",
          "name": "approved",
          "type": "bool"
        }
      ],
      "name": "setApprovalForAll",
      "outputs": [],
      "stateMutability": "nonpayable",
      "type": "function"
    },
    {
      "inputs": [
        {
          "internalType": "bytes4",
          "name": "interfaceId",
          "type": "bytes4"
        }
      ],
      "name": "supportsInterface",
      "outputs": [
        {
          "internalType": "bool",
          "name": "",
          "type": "bool"
        }
      ],
      "stateMutability": "view",
      "type": "function"
    },
    {
      "inputs": [],
      "name": "symbol",
      "outputs": [
        {
          "internalType": "string",
          "name": "",
          "type": "string"
        }
      ],
      "stateMutability": "view",
      "type": "function"
    },
    {
      "inputs": [
        {
          "internalType": "uint256",
          "name": "tokenId",
          "type": "uint256"
        }
      ],
      "name": "tokenURI",
      "outputs": [
        {
          "internalType": "string",
          "name": "",
          "type": "string"
        }
      ],
      "stateMutability": "view",
      "type": "function"
    },
    {
      "inputs": [
        {
          "internalType": "address",
          "name": "from",
          "type": "address"
        },
        {
          "internalType": "address",
          "name": "to",
          "type": "address"
        },
        {
          "internalType": "uint256",
          "name": "tokenId",
          "type": "uint256"
        }
      ],
      "name": "transferFrom",
      "outputs": [],
      "stateMutability": "nonpayable",
      "type": "function"
    },
    {
      "inputs": [
        {
          "internalType": "address",
          "name": "newOwner",
          "type": "address"
        }
      ],
      "name": "transferOwnership",
      "outputs": [],
      "stateMutability": "nonpayable",
      "type": "function"
    }
  ],
  "bytecode": "0x608060405234801561001057600080fd5b506040516138a03803806138a08339818101604052810190610032919061037a565b80838381600090816100449190610626565b5080600190816100549190610626565b505050600073ffffffffffffffffffffffffffffffffffffffff168173ffffffffffffffffffffffffffffffffffffffff16036100c95760006040517f1e4fbdf70000000000000000000000000000000000000000000000000000000081526004016100c09190610707565b60405180910390fd5b6100d8816100e160201b60201c565b50505050610722565b6000600760009054906101000a900473ffffffffffffffffffffffffffffffffffffffff16905081600760006101000a81548173ffffffffffffffffffffffffffffffffffffffff021916908373ffffffffffffffffffffffffffffffffffffffff1602179055508173ffffffffffffffffffffffffffffffffffffffff168173ffffffffffffffffffffffffffffffffffffffff167f8be0079c531659141344cd1fd0a4f28419497f9722a3daafe3b4186f6b6457e060405160405180910390a35050565b6000604051905090565b600080fd5b600080fd5b600080fd5b600080fd5b6000601f19601f8301169050919050565b7f4e487b7100000000000000000000000000000000000000000000000000000000600052604160045260246000fd5b61020e826101c5565b810181811067ffffffffffffffff8211171561022d5761022c6101d6565b5b80604052505050565b60006102406101a7565b905061024c8282610205565b919050565b600067ffffffffffffffff82111561026c5761026b6101d6565b5b610275826101c5565b9050602081019050919050565b60005b838110156102a0578082015181840152602081019050610285565b60008484015250505050565b60006102bf6102ba84610251565b610236565b9050828152602081018484840111156102db576102da6101c0565b5b6102e6848285610282565b509392505050565b600082601f830112610303576103026101bb565b5b81516103138482602086016102ac565b91505092915050565b600073ffffffffffffffffffffffffffffffffffffffff82169050919050565b60006103478261031c565b9050919050565b6103578161033c565b811461036257600080fd5b50565b6000815190506103748161034e565b92915050565b600080600060608486031215610393576103926101b1565b5b600084015167ffffffffffffffff8111156103b1576103b06101b6565b5b6103bd868287016102ee565b935050602084015167ffffffffffffffff8111156103de576103dd6101b6565b5b6103ea868287016102ee565b92505060406103fb86828701610365565b9150509250925092565b600081519050919050565b7f4e487b7100000000000000000000000000000000000000000000000000000000600052602260045260246000fd5b6000600282049050600182168061045757607f821691505b60208210810361046a57610469610410565b5b50919050565b60008190508160005260206000209050919050565b60006020601f8301049050919050565b600082821b905092915050565b6000600883026104d27fffffffffffffffffffffffffffffffffffffffffffffffffffffffffffffffff82610495565b6104dc8683610495565b95508019841693508086168417925050509392505050565b6000819050919050565b6000819050919050565b600061052361051e610519846104f4565b6104fe565b6104f4565b9050919050565b6000819050919050565b61053d83610508565b6105516105498261052a565b8484546104a2565b825550505050565b600090565b610566610559565b610571818484610534565b505050565b5b818110156105955761058a60008261055e565b600181019050610577565b5050565b601f8211156105da576105ab81610470565b6105b484610485565b810160208510156105c3578190505b6105d76105cf85610485565b830182610576565b50505b505050565b600082821c905092915050565b60006105fd600019846008026105df565b1980831691505092915050565b600061061683836105ec565b9150826002028217905092915050565b61062f82610405565b67ffffffffffffffff811115610648576106476101d6565b5b610652825461043f565b61065d828285610599565b600060209050601f831160018114610690576000841561067e578287015190505b610688858261060a565b8655506106f0565b601f19841661069e86610470565b60005b828110156106c6578489015182556001820191506020850194506020810190506106a1565b868310156106e357848901516106df601f8916826105ec565b8355505b6001600288020188555050505b505050505050565b6107018161033c565b82525050565b600060208201905061071c60008301846106f8565b92915050565b61316f806107316000396000f3fe6080604052600436106101665760003560e01c8063804396af116100d1578063b88d4fde1161008a578063d13c870311610064578063d13c870314610568578063dcb10a04146105a5578063e985e9c5146105e2578063f2fde38b1461061f57610166565b8063b88d4fde146104c5578063c87b56dd146104ee578063ced141981461052b57610166565b8063804396af146103a15780638684e124146103de5780638da5cb5b1461041b57806395d89b4114610446578063a22cb46514610471578063a91496411461049a57610166565b806323b872dd1161012357806323b872dd1461027e578063265aa621146102a757806342842e0e146102e75780636352211e1461031057806370a082311461034d578063715018a61461038a57610166565b806301ffc9a71461016b57806306fdde03146101a8578063081812fc146101d357806308a8d7aa14610210578063095ea7b314610239578063150bde0314610262575b600080fd5b34801561017757600080fd5b50610192600480360381019061018d91906122d1565b610648565b60405161019f9190612319565b60405180910390f35b3480156101b457600080fd5b506101bd6106a9565b6040516101ca91906123c4565b60405180910390f35b3480156101df57600080fd5b506101fa60048036038101906101f5919061241c565b61073b565b604051610207919061248a565b60405180910390f35b34801561021c57600080fd5b5061023760048036038101906102329190612536565b610757565b005b34801561024557600080fd5b50610260600480360381019061025b91906125be565b610860565b005b61027c6004803603810190610277919061241c565b610876565b005b34801561028a57600080fd5b506102a560048036038101906102a091906125fe565b610ac4565b005b3480156102b357600080fd5b506102ce60048036038101906102c9919061241c565b610bc6565b6040516102de9493929190612660565b60405180910390f35b3480156102f357600080fd5b5061030e600480360381019061030991906125fe565b610c9e565b005b34801561031c57600080fd5b506103376004803603810190610332919061241c565b610cbe565b604051610344919061248a565b60405180910390f35b34801561035957600080fd5b50610374600480360381019061036f91906126ac565b610cd0565b60405161038191906126d9565b60405180910390f35b34801561039657600080fd5b5061039f610d8a565b005b3480156103ad57600080fd5b506103c860048036038101906103c391906126ac565b610d9e565b6040516103d591906126d9565b60405180910390f35b3480156103ea57600080fd5b506104056004803603810190610400919061241c565b610de7565b60405161041291906126d9565b60405180910390f35b34801561042757600080fd5b50610430610e0b565b60405161043d919061248a565b60405180910390f35b34801561045257600080fd5b5061045b610e35565b60405161046891906123c4565b60405180910390f35b34801561047d57600080fd5b5061049860048036038101906104939190612720565b610ec7565b005b3480156104a657600080fd5b506104af610edd565b6040516104bc919061281e565b60405180910390f35b3480156104d157600080fd5b506104ec60048036038101906104e79190612970565b610f35565b005b3480156104fa57600080fd5b506105156004803603810190610510919061241c565b610f5a565b60405161052291906123c4565b60405180910390f35b34801561053757600080fd5b50610552600480360381019061054d91906129f3565b61106d565b60405161055f9190612319565b60405180910390f35b34801561057457600080fd5b5061058f600480360381019061058a91906129f3565b61109c565b60405161059c9190612319565b60405180910390f35b3480156105b157600080fd5b506105cc60048036038101906105c791906126ac565b611104565b6040516105d991906126d9565b60405180910390f35b3480156105ee57600080fd5b5061060960048036038101906106049190612a33565b61111c565b6040516106169190612319565b60405180910390f35b34801561062b57600080fd5b50610646600480360381019061064191906126ac565b6111b0565b005b6000634906490660e01b7bffffffffffffffffffffffffffffffffffffffffffffffffffffffff1916827bffffffffffffffffffffffffffffffffffffffffffffffffffffffff191614806106a257506106a182611236565b5b9050919050565b6060600080546106b890612aa2565b80601f01602080910402602001604051908101604052809291908181526020018280546106e490612aa2565b80156107315780601f1061070657610100808354040283529160200191610731565b820191906000526020600020905b81548152906001019060200180831161071457829003601f168201915b5050505050905090565b600061074682611318565b50610750826113a0565b9050919050565b61076185856113dd565b6107af8484848080601f016020809104026020016040519081016040528093929190818152602001838380828437600081840152601f19601f820116905080830192505050505050506114d6565b6000600a60008681526020019081526020016000209050848160000181905550338160010160006101000a81548173ffffffffffffffffffffffffffffffffffffffff021916908373ffffffffffffffffffffffffffffffffffffffff1602179055508383826002019182610825929190612c8a565b508181600301819055506008859080600181540180825580915050600190039060005260206000200160009091909190915055505050505050565b610872828261086d611532565b61153a565b5050565b6000600a6000838152602001908152602001600020905080600301543410156108d4576040517f08c379a00000000000000000000000000000000000000000000000000000000081526004016108cb90612da6565b60405180910390fd5b6009600083815260200190815260200160002060003373ffffffffffffffffffffffffffffffffffffffff1673ffffffffffffffffffffffffffffffffffffffff16815260200190815260200160002060009054906101000a900460ff1615610972576040517f08c379a000000000000000000000000000000000000000000000000000000000815260040161096990612e12565b60405180910390fd5b60016009600084815260200190815260200160002060003373ffffffffffffffffffffffffffffffffffffffff1673ffffffffffffffffffffffffffffffffffffffff16815260200190815260200160002060006101000a81548160ff0219169083151502179055508060010160009054906101000a900473ffffffffffffffffffffffffffffffffffffffff1673ffffffffffffffffffffffffffffffffffffffff166108fc349081150290604051600060405180830381858888f19350505050158015610a45573d6000803e3d6000fd5b5034600b60008360010160009054906101000a900473ffffffffffffffffffffffffffffffffffffffff1673ffffffffffffffffffffffffffffffffffffffff1673ffffffffffffffffffffffffffffffffffffffff1681526020019081526020016000206000828254610ab99190612e61565b925050819055505050565b600073ffffffffffffffffffffffffffffffffffffffff168273ffffffffffffffffffffffffffffffffffffffff1603610b365760006040517f64a0ae92000000000000000000000000000000000000000000000000000000008152600401610b2d919061248a565b60405180910390fd5b6000610b4a8383610b45611532565b61154c565b90508373ffffffffffffffffffffffffffffffffffffffff168173ffffffffffffffffffffffffffffffffffffffff1614610bc0578382826040517f64283d7b000000000000000000000000000000000000000000000000000000008152600401610bb793929190612e95565b60405180910390fd5b50505050565b600a6020528060005260406000206000915090508060000154908060010160009054906101000a900473ffffffffffffffffffffffffffffffffffffffff1690806002018054610c1590612aa2565b80601f0160208091040260200160405190810160405280929190818152602001828054610c4190612aa2565b8015610c8e5780601f10610c6357610100808354040283529160200191610c8e565b820191906000526020600020905b815481529060010190602001808311610c7157829003601f168201915b5050505050908060030154905084565b610cb983838360405180602001604052806000815250610f35565b505050565b6000610cc982611318565b9050919050565b60008073ffffffffffffffffffffffffffffffffffffffff168273ffffffffffffffffffffffffffffffffffffffff1603610d435760006040517f89c62b64000000000000000000000000000000000000000000000000000000008152600401610d3a919061248a565b60405180910390fd5b600360008373ffffffffffffffffffffffffffffffffffffffff1673ffffffffffffffffffffffffffffffffffffffff168152602001908152602001600020549050919050565b610d92611766565b610d9c60006117ed565b565b6000600b60008373ffffffffffffffffffffffffffffffffffffffff1673ffffffffffffffffffffffffffffffffffffffff168152602001908152602001600020549050919050565b60088181548110610df757600080fd5b906000526020600020016000915090505481565b6000600760009054906101000a900473ffffffffffffffffffffffffffffffffffffffff16905090565b606060018054610e4490612aa2565b80601f0160208091040260200160405190810160405280929190818152602001828054610e7090612aa2565b8015610ebd5780601f10610e9257610100808354040283529160200191610ebd565b820191906000526020600020905b815481529060010190602001808311610ea057829003601f168201915b5050505050905090565b610ed9610ed2611532565b83836118b3565b5050565b60606008805480602002602001604051908101604052809291908181526020018280548015610f2b57602002820191906000526020600020905b815481526020019060010190808311610f17575b5050505050905090565b610f40848484610ac4565b610f54610f4b611532565b85858585611a22565b50505050565b6060610f6582611318565b506000600660008481526020019081526020016000208054610f8690612aa2565b80601f0160208091040260200160405190810160405280929190818152602001828054610fb290612aa2565b8015610fff5780601f10610fd457610100808354040283529160200191610fff565b820191906000526020600020905b815481529060010190602001808311610fe257829003601f168201915b505050505090506000611010611bd3565b90506000815103611025578192505050611068565b60008251111561105a578082604051602001611042929190612f08565b60405160208183030381529060405292505050611068565b61106384611bea565b925050505b919050565b60096020528160005260406000206020528060005260406000206000915091509054906101000a900460ff1681565b60006009600084815260200190815260200160002060008373ffffffffffffffffffffffffffffffffffffffff1673ffffffffffffffffffffffffffffffffffffffff16815260200190815260200160002060009054906101000a900460ff16905092915050565b600b6020528060005260406000206000915090505481565b6000600560008473ffffffffffffffffffffffffffffffffffffffff1673ffffffffffffffffffffffffffffffffffffffff16815260200190815260200160002060008373ffffffffffffffffffffffffffffffffffffffff1673ffffffffffffffffffffffffffffffffffffffff16815260200190815260200160002060009054906101000a900460ff16905092915050565b6111b8611766565b600073ffffffffffffffffffffffffffffffffffffffff168173ffffffffffffffffffffffffffffffffffffffff160361122a5760006040517f1e4fbdf7000000000000000000000000000000000000000000000000000000008152600401611221919061248a565b60405180910390fd5b611233816117ed565b50565b60007f80ac58cd000000000000000000000000000000000000000000000000000000007bffffffffffffffffffffffffffffffffffffffffffffffffffffffff1916827bffffffffffffffffffffffffffffffffffffffffffffffffffffffff1916148061130157507f5b5e139f000000000000000000000000000000000000000000000000000000007bffffffffffffffffffffffffffffffffffffffffffffffffffffffff1916827bffffffffffffffffffffffffffffffffffffffffffffffffffffffff1916145b80611311575061131082611c53565b5b9050919050565b60008061132483611cbd565b9050600073ffffffffffffffffffffffffffffffffffffffff168173ffffffffffffffffffffffffffffffffffffffff160361139757826040517f7e27328900000000000000000000000000000000000000000000000000000000815260040161138e91906126d9565b60405180910390fd5b80915050919050565b60006004600083815260200190815260200160002060009054906101000a900473ffffffffffffffffffffffffffffffffffffffff169050919050565b600073ffffffffffffffffffffffffffffffffffffffff168273ffffffffffffffffffffffffffffffffffffffff160361144f5760006040517f64a0ae92000000000000000000000000000000000000000000000000000000008152600401611446919061248a565b60405180910390fd5b600061145d8383600061154c565b9050600073ffffffffffffffffffffffffffffffffffffffff168173ffffffffffffffffffffffffffffffffffffffff16146114d15760006040517f73c6ac6e0000000000000000000000000000000000000000000000000000000081526004016114c8919061248a565b60405180910390fd5b505050565b806006600084815260200190815260200160002090816114f69190612f2c565b507ff8e1a15aba9398e019f0b49df1a4fde98ee17ae345cb5f6b5e2c27f5033e8ce78260405161152691906126d9565b60405180910390a15050565b600033905090565b6115478383836001611cfa565b505050565b60008061155884611cbd565b9050600073ffffffffffffffffffffffffffffffffffffffff168373ffffffffffffffffffffffffffffffffffffffff161461159a57611599818486611ebf565b5b600073ffffffffffffffffffffffffffffffffffffffff168173ffffffffffffffffffffffffffffffffffffffff161461162b576115dc600085600080611cfa565b6001600360008373ffffffffffffffffffffffffffffffffffffffff1673ffffffffffffffffffffffffffffffffffffffff168152602001908152602001600020600082825403925050819055505b600073ffffffffffffffffffffffffffffffffffffffff168573ffffffffffffffffffffffffffffffffffffffff16146116ae576001600360008773ffffffffffffffffffffffffffffffffffffffff1673ffffffffffffffffffffffffffffffffffffffff168152602001908152602001600020600082825401925050819055505b846002600086815260200190815260200160002060006101000a81548173ffffffffffffffffffffffffffffffffffffffff021916908373ffffffffffffffffffffffffffffffffffffffff160217905550838573ffffffffffffffffffffffffffffffffffffffff168273ffffffffffffffffffffffffffffffffffffffff167fddf252ad1be2c89b69c2b068fc378daa952ba7f163c4a11628f55a4df523b3ef60405160405180910390a4809150509392505050565b61176e611532565b73ffffffffffffffffffffffffffffffffffffffff1661178c610e0b565b73ffffffffffffffffffffffffffffffffffffffff16146117eb576117af611532565b6040517f118cdaa70000000000000000000000000000000000000000000000000000000081526004016117e2919061248a565b60405180910390fd5b565b6000600760009054906101000a900473ffffffffffffffffffffffffffffffffffffffff16905081600760006101000a81548173ffffffffffffffffffffffffffffffffffffffff021916908373ffffffffffffffffffffffffffffffffffffffff1602179055508173ffffffffffffffffffffffffffffffffffffffff168173ffffffffffffffffffffffffffffffffffffffff167f8be0079c531659141344cd1fd0a4f28419497f9722a3daafe3b4186f6b6457e060405160405180910390a35050565b600073ffffffffffffffffffffffffffffffffffffffff168273ffffffffffffffffffffffffffffffffffffffff160361192457816040517f5b08ba1800000000000000000000000000000000000000000000000000000000815260040161191b919061248a565b60405180910390fd5b80600560008573ffffffffffffffffffffffffffffffffffffffff1673ffffffffffffffffffffffffffffffffffffffff16815260200190815260200160002060008473ffffffffffffffffffffffffffffffffffffffff1673ffffffffffffffffffffffffffffffffffffffff16815260200190815260200160002060006101000a81548160ff0219169083151502179055508173ffffffffffffffffffffffffffffffffffffffff168373ffffffffffffffffffffffffffffffffffffffff167f17307eab39ab6107e8899845ad3d59bd9653f200f220920489ca2b5937696c3183604051611a159190612319565b60405180910390a3505050565b60008373ffffffffffffffffffffffffffffffffffffffff163b1115611bcc578273ffffffffffffffffffffffffffffffffffffffff1663150b7a02868685856040518563ffffffff1660e01b8152600401611a819493929190613053565b6020604051808303816000875af1925050508015611abd57506040513d601f19601f82011682018060405250810190611aba91906130b4565b60015b611b41573d8060008114611aed576040519150601f19603f3d011682016040523d82523d6000602084013e611af2565b606091505b506000815103611b3957836040517f64a0ae92000000000000000000000000000000000000000000000000000000008152600401611b30919061248a565b60405180910390fd5b805181602001fd5b63150b7a0260e01b7bffffffffffffffffffffffffffffffffffffffffffffffffffffffff1916817bffffffffffffffffffffffffffffffffffffffffffffffffffffffff191614611bca57836040517f64a0ae92000000000000000000000000000000000000000000000000000000008152600401611bc1919061248a565b60405180910390fd5b505b5050505050565b606060405180602001604052806000815250905090565b6060611bf582611318565b506000611c00611bd3565b90506000815111611c205760405180602001604052806000815250611c4b565b80611c2a84611f83565b604051602001611c3b929190612f08565b6040516020818303038152906040525b915050919050565b60007f01ffc9a7000000000000000000000000000000000000000000000000000000007bffffffffffffffffffffffffffffffffffffffffffffffffffffffff1916827bffffffffffffffffffffffffffffffffffffffffffffffffffffffff1916149050919050565b60006002600083815260200190815260200160002060009054906101000a900473ffffffffffffffffffffffffffffffffffffffff169050919050565b8080611d335750600073ffffffffffffffffffffffffffffffffffffffff168273ffffffffffffffffffffffffffffffffffffffff1614155b15611e67576000611d4384611318565b9050600073ffffffffffffffffffffffffffffffffffffffff168373ffffffffffffffffffffffffffffffffffffffff1614158015611dae57508273ffffffffffffffffffffffffffffffffffffffff168173ffffffffffffffffffffffffffffffffffffffff1614155b8015611dc15750611dbf818461111c565b155b15611e0357826040517fa9fbf51f000000000000000000000000000000000000000000000000000000008152600401611dfa919061248a565b60405180910390fd5b8115611e6557838573ffffffffffffffffffffffffffffffffffffffff168273ffffffffffffffffffffffffffffffffffffffff167f8c5be1e5ebec7d5bd14f71427d1e84f3dd0314c0f7b2291e5b200ac8c7c3b92560405160405180910390a45b505b836004600085815260200190815260200160002060006101000a81548173ffffffffffffffffffffffffffffffffffffffff021916908373ffffffffffffffffffffffffffffffffffffffff16021790555050505050565b611eca838383612051565b611f7e57600073ffffffffffffffffffffffffffffffffffffffff168373ffffffffffffffffffffffffffffffffffffffff1603611f3f57806040517f7e273289000000000000000000000000000000000000000000000000000000008152600401611f3691906126d9565b60405180910390fd5b81816040517f177e802f000000000000000000000000000000000000000000000000000000008152600401611f759291906130e1565b60405180910390fd5b505050565b606060006001611f9284612112565b01905060008167ffffffffffffffff811115611fb157611fb0612845565b5b6040519080825280601f01601f191660200182016040528015611fe35781602001600182028036833780820191505090505b509050600082602001820190505b600115612046578080600190039150507f3031323334353637383961626364656600000000000000000000000000000000600a86061a8153600a858161203a5761203961310a565b5b04945060008503611ff1575b819350505050919050565b60008073ffffffffffffffffffffffffffffffffffffffff168373ffffffffffffffffffffffffffffffffffffffff161415801561210957508273ffffffffffffffffffffffffffffffffffffffff168473ffffffffffffffffffffffffffffffffffffffff1614806120ca57506120c9848461111c565b5b8061210857508273ffffffffffffffffffffffffffffffffffffffff166120f0836113a0565b73ffffffffffffffffffffffffffffffffffffffff16145b5b90509392505050565b600080600090507a184f03e93ff9f4daa797ed6e38ed64bf6a1f0100000000000000008310612170577a184f03e93ff9f4daa797ed6e38ed64bf6a1f01000000000000000083816121665761216561310a565b5b0492506040810190505b6d04ee2d6d415b85acef810000000083106121ad576d04ee2d6d415b85acef810000000083816121a3576121a261310a565b5b0492506020810190505b662386f26fc1000083106121dc57662386f26fc1000083816121d2576121d161310a565b5b0492506010810190505b6305f5e1008310612205576305f5e10083816121fb576121fa61310a565b5b0492506008810190505b612710831061222a5761271083816122205761221f61310a565b5b0492506004810190505b6064831061224d57606483816122435761224261310a565b5b0492506002810190505b600a831061225c576001810190505b80915050919050565b6000604051905090565b600080fd5b600080fd5b60007fffffffff0000000000000000000000000000000000000000000000000000000082169050919050565b6122ae81612279565b81146122b957600080fd5b50565b6000813590506122cb816122a5565b92915050565b6000602082840312156122e7576122e661226f565b5b60006122f5848285016122bc565b91505092915050565b60008115159050919050565b612313816122fe565b82525050565b600060208201905061232e600083018461230a565b92915050565b600081519050919050565b600082825260208201905092915050565b60005b8381101561236e578082015181840152602081019050612353565b60008484015250505050565b6000601f19601f8301169050919050565b600061239682612334565b6123a0818561233f565b93506123b0818560208601612350565b6123b98161237a565b840191505092915050565b600060208201905081810360008301526123de818461238b565b905092915050565b6000819050919050565b6123f9816123e6565b811461240457600080fd5b50565b600081359050612416816123f0565b92915050565b6000602082840312156124325761243161226f565b5b600061244084828501612407565b91505092915050565b600073ffffffffffffffffffffffffffffffffffffffff82169050919050565b600061247482612449565b9050919050565b61248481612469565b82525050565b600060208201905061249f600083018461247b565b92915050565b6124ae81612469565b81146124b957600080fd5b50565b6000813590506124cb816124a5565b92915050565b600080fd5b600080fd5b600080fd5b60008083601f8401126124f6576124f56124d1565b5b8235905067ffffffffffffffff811115612513576125126124d6565b5b60208301915083600182028301111561252f5761252e6124db565b5b9250929050565b6000806000806000608086880312156125525761255161226f565b5b6000612560888289016124bc565b955050602061257188828901612407565b945050604086013567ffffffffffffffff81111561259257612591612274565b5b61259e888289016124e0565b935093505060606125b188828901612407565b9150509295509295909350565b600080604083850312156125d5576125d461226f565b5b60006125e3858286016124bc565b92505060206125f485828601612407565b9150509250929050565b6000806000606084860312156126175761261661226f565b5b6000612625868287016124bc565b9350506020612636868287016124bc565b925050604061264786828701612407565b9150509250925092565b61265a816123e6565b82525050565b60006080820190506126756000830187612651565b612682602083018661247b565b8181036040830152612694818561238b565b90506126a36060830184612651565b95945050505050565b6000602082840312156126c2576126c161226f565b5b60006126d0848285016124bc565b91505092915050565b60006020820190506126ee6000830184612651565b92915050565b6126fd816122fe565b811461270857600080fd5b50565b60008135905061271a816126f4565b92915050565b600080604083850312156127375761273661226f565b5b6000612745858286016124bc565b92505060206127568582860161270b565b9150509250929050565b600081519050919050565b600082825260208201905092915050565b6000819050602082019050919050565b612795816123e6565b82525050565b60006127a7838361278c565b60208301905092915050565b6000602082019050919050565b60006127cb82612760565b6127d5818561276b565b93506127e08361277c565b8060005b838110156128115781516127f8888261279b565b9750612803836127b3565b9250506001810190506127e4565b5085935050505092915050565b6000602082019050818103600083015261283881846127c0565b905092915050565b600080fd5b7f4e487b7100000000000000000000000000000000000000000000000000000000600052604160045260246000fd5b61287d8261237a565b810181811067ffffffffffffffff8211171561289c5761289b612845565b5b80604052505050565b60006128af612265565b90506128bb8282612874565b919050565b600067ffffffffffffffff8211156128db576128da612845565b5b6128e48261237a565b9050602081019050919050565b82818337600083830152505050565b600061291361290e846128c0565b6128a5565b90508281526020810184848401111561292f5761292e612840565b5b61293a8482856128f1565b509392505050565b600082601f830112612957576129566124d1565b5b8135612967848260208601612900565b91505092915050565b6000806000806080858703121561298a5761298961226f565b5b6000612998878288016124bc565b94505060206129a9878288016124bc565b93505060406129ba87828801612407565b925050606085013567ffffffffffffffff8111156129db576129da612274565b5b6129e787828801612942565b91505092959194509250565b60008060408385031215612a0a57612a0961226f565b5b6000612a1885828601612407565b9250506020612a29858286016124bc565b9150509250929050565b60008060408385031215612a4a57612a4961226f565b5b6000612a58858286016124bc565b9250506020612a69858286016124bc565b9150509250929050565b7f4e487b7100000000000000000000000000000000000000000000000000000000600052602260045260246000fd5b60006002820490506001821680612aba57607f821691505b602082108103612acd57612acc612a73565b5b50919050565b600082905092915050565b60008190508160005260206000209050919050565b60006020601f8301049050919050565b600082821b905092915050565b600060088302612b407fffffffffffffffffffffffffffffffffffffffffffffffffffffffffffffffff82612b03565b612b4a8683612b03565b95508019841693508086168417925050509392505050565b6000819050919050565b6000612b87612b82612b7d846123e6565b612b62565b6123e6565b9050919050565b6000819050919050565b612ba183612b6c565b612bb5612bad82612b8e565b848454612b10565b825550505050565b600090565b612bca612bbd565b612bd5818484612b98565b505050565b5b81811015612bf957612bee600082612bc2565b600181019050612bdb565b5050565b601f821115612c3e57612c0f81612ade565b612c1884612af3565b81016020851015612c27578190505b612c3b612c3385612af3565b830182612bda565b50505b505050565b600082821c905092915050565b6000612c6160001984600802612c43565b1980831691505092915050565b6000612c7a8383612c50565b9150826002028217905092915050565b612c948383612ad3565b67ffffffffffffffff811115612cad57612cac612845565b5b612cb78254612aa2565b612cc2828285612bfd565b6000601f831160018114612cf15760008415612cdf578287013590505b612ce98582612c6e565b865550612d51565b601f198416612cff86612ade565b60005b82811015612d2757848901358255600182019150602085019450602081019050612d02565b86831015612d445784890135612d40601f891682612c50565b8355505b6001600288020188555050505b50505050505050565b7f496e73756666696369656e742066756e64730000000000000000000000000000600082015250565b6000612d9060128361233f565b9150612d9b82612d5a565b602082019050919050565b60006020820190508181036000830152612dbf81612d83565b9050919050565b7f416c726561647920707572636861736564000000000000000000000000000000600082015250565b6000612dfc60118361233f565b9150612e0782612dc6565b602082019050919050565b60006020820190508181036000830152612e2b81612def565b9050919050565b7f4e487b7100000000000000000000000000000000000000000000000000000000600052601160045260246000fd5b6000612e6c826123e6565b9150612e77836123e6565b9250828201905080821115612e8f57612e8e612e32565b5b92915050565b6000606082019050612eaa600083018661247b565b612eb76020830185612651565b612ec4604083018461247b565b949350505050565b600081905092915050565b6000612ee282612334565b612eec8185612ecc565b9350612efc818560208601612350565b80840191505092915050565b6000612f148285612ed7565b9150612f208284612ed7565b91508190509392505050565b612f3582612334565b67ffffffffffffffff811115612f4e57612f4d612845565b5b612f588254612aa2565b612f63828285612bfd565b600060209050601f831160018114612f965760008415612f84578287015190505b612f8e8582612c6e565b865550612ff6565b601f198416612fa486612ade565b60005b82811015612fcc57848901518255600182019150602085019450602081019050612fa7565b86831015612fe95784890151612fe5601f891682612c50565b8355505b6001600288020188555050505b505050505050565b600081519050919050565b600082825260208201905092915050565b600061302582612ffe565b61302f8185613009565b935061303f818560208601612350565b6130488161237a565b840191505092915050565b6000608082019050613068600083018761247b565b613075602083018661247b565b6130826040830185612651565b8181036060830152613094818461301a565b905095945050505050565b6000815190506130ae816122a5565b92915050565b6000602082840312156130ca576130c961226f565b5b60006130d88482850161309f565b91505092915050565b60006040820190506130f6600083018561247b565b6131036020830184612651565b9392505050565b7f4e487b7100000000000000000000000000000000000000000000000000000000600052601260045260246000fdfea2646970667358221220e8eb5fe54f4da837a02d534f906c8e6ef2cdd9485d3da7e401e5ddaeef82863a64736f6c634300081c0033",
  "linkReferences": {},
  "deployedLinkReferences": {}
}