{
  "_format": "hh-sol-artifact-1",
  "contractName": "Nft",
  "sourceName": "contracts/NFT.sol",
  "abi": [
    {
      "inputs": [
        {
          "internalType": "string",
          "name": "name",
          "type": "string"
        },
        {
          "internalType": "string",
          "name": "symbol",
          "type": "string"
        },
        {
          "internalType": "address",
          "name": "initialOwner",
          "type": "address"
        }
      ],
      "stateMutability": "nonpayable",
      "type": "constructor"
    },
    {
      "inputs": [
        {
          "internalType": "address",
          "name": "sender",
          "type": "address"
        },
        {
          "internalType": "uint256",
          "name": "tokenId",
          "type": "uint256"
        },
        {
          "internalType": "address",
          "name": "owner",
          "type": "address"
        }
      ],
      "name": "ERC721IncorrectOwner",
      "type": "error"
    },
    {
      "inputs": [
        {
          "internalType": "address",
          "name": "operator",
          "type": "address"
        },
        {
          "internalType": "uint256",
          "name": "tokenId",
          "type": "uint256"
        }
      ],
      "name": "ERC721InsufficientApproval",
      "type": "error"
    },
    {
      "inputs": [
        {
          "internalType": "address",
          "name": "approver",
          "type": "address"
        }
      ],
      "name": "ERC721InvalidApprover",
      "type": "error"
    },
    {
      "inputs": [
        {
          "internalType": "address",
          "name": "operator",
          "type": "address"
        }
      ],
      "name": "ERC721InvalidOperator",
      "type": "error"
    },
    {
      "inputs": [
        {
          "internalType": "address",
          "name": "owner",
          "type": "address"
        }
      ],
      "name": "ERC721InvalidOwner",
      "type": "error"
    },
    {
      "inputs": [
        {
          "internalType": "address",
          "name": "receiver",
          "type": "address"
        }
      ],
      "name": "ERC721InvalidReceiver",
      "type": "error"
    },
    {
      "inputs": [
        {
          "internalType": "address",
          "name": "sender",
          "type": "address"
        }
      ],
      "name": "ERC721InvalidSender",
      "type": "error"
    },
    {
      "inputs": [
        {
          "internalType": "uint256",
          "name": "tokenId",
          "type": "uint256"
        }
      ],
      "name": "ERC721NonexistentToken",
      "type": "error"
    },
    {
      "inputs": [
        {
          "internalType": "address",
          "name": "owner",
          "type": "address"
        }
      ],
      "name": "OwnableInvalidOwner",
      "type": "error"
    },
    {
      "inputs": [
        {
          "internalType": "address",
          "name": "account",
          "type": "address"
        }
      ],
      "name": "OwnableUnauthorizedAccount",
      "type": "error"
    },
    {
      "anonymous": false,
      "inputs": [
        {
          "indexed": true,
          "internalType": "address",
          "name": "owner",
          "type": "address"
        },
        {
          "indexed": true,
          "internalType": "address",
          "name": "approved",
          "type": "address"
        },
        {
          "indexed": true,
          "internalType": "uint256",
          "name": "tokenId",
          "type": "uint256"
        }
      ],
      "name": "Approval",
      "type": "event"
    },
    {
      "anonymous": false,
      "inputs": [
        {
          "indexed": true,
          "internalType": "address",
          "name": "owner",
          "type": "address"
        },
        {
          "indexed": true,
          "internalType": "address",
          "name": "operator",
          "type": "address"
        },
        {
          "indexed": false,
          "internalType": "bool",
          "name": "approved",
          "type": "bool"
        }
      ],
      "name": "ApprovalForAll",
      "type": "event"
    },
    {
      "anonymous": false,
      "inputs": [
        {
          "indexed": false,
          "internalType": "uint256",
          "name": "_fromTokenId",
          "type": "uint256"
        },
        {
          "indexed": false,
          "internalType": "uint256",
          "name": "_toTokenId",
          "type": "uint256"
        }
      ],
      "name": "BatchMetadataUpdate",
      "type": "event"
    },
    {
      "anonymous": false,
      "inputs": [
        {
          "indexed": false,
          "internalType": "uint256",
          "name": "_tokenId",
          "type": "uint256"
        }
      ],
      "name": "MetadataUpdate",
      "type": "event"
    },
    {
      "anonymous": false,
      "inputs": [
        {
          "indexed": true,
          "internalType": "address",
          "name": "previousOwner",
          "type": "address"
        },
        {
          "indexed": true,
          "internalType": "address",
          "name": "newOwner",
          "type": "address"
        }
      ],
      "name": "OwnershipTransferred",
      "type": "event"
    },
    {
      "anonymous": false,
      "inputs": [
        {
          "indexed": true,
          "internalType": "address",
          "name": "from",
          "type": "address"
        },
        {
          "indexed": true,
          "internalType": "address",
          "name": "to",
          "type": "address"
        },
        {
          "indexed": true,
          "internalType": "uint256",
          "name": "tokenId",
          "type": "uint256"
        }
      ],
      "name": "Transfer",
      "type": "event"
    },
    {
      "inputs": [
        {
          "internalType": "address",
          "name": "",
          "type": "address"
        }
      ],
      "name": "addressToEarnings",
      "outputs": [
        {
          "internalType": "uint256",
          "name": "",
          "type": "uint256"
        }
      ],
      "stateMutability": "view",
      "type": "function"
    },
    {
      "inputs": [
        {
          "internalType": "address",
          "name": "to",
          "type": "address"
        },
        {
          "internalType": "uint256",
          "name": "tokenId",
          "type": "uint256"
        }
      ],
      "name": "approve",
      "outputs": [],
      "stateMutability": "nonpayable",
      "type": "function"
    },
    {
      "inputs": [
        {
          "internalType": "address",
          "name": "owner",
          "type": "address"
        }
      ],
      "name": "balanceOf",
      "outputs": [
        {
          "internalType": "uint256",
          "name": "",
          "type": "uint256"
        }
      ],
      "stateMutability": "view",
      "type": "function"
    },
    {
      "inputs": [
        {
          "internalType": "uint256",
          "name": "tokenId",
          "type": "uint256"
        },
        {
          "internalType": "address",
          "name": "user",
          "type": "address"
        }
      ],
      "name": "checkAccess",
      "outputs": [
        {
          "internalType": "bool",
          "name": "",
          "type": "bool"
        }
      ],
      "stateMutability": "view",
      "type": "function"
    },
    {
      "inputs": [],
      "name": "getAllNfts",
      "outputs": [
        {
          "components": [
            {
              "internalType": "uint256",
              "name": "tokenId",
              "type": "uint256"
            },
            {
              "internalType": "string",
              "name": "name",
              "type": "string"
            },
            {
              "internalType": "string",
              "name": "description",
              "type": "string"
            },
            {
              "internalType": "string",
              "name": "image",
              "type": "string"
            },
            {
              "internalType": "uint256",
              "name": "price",
              "type": "uint256"
            },
            {
              "internalType": "address",
              "name": "creator",
              "type": "address"
            }
          ],
          "internalType": "struct Nft.NftMetadata[]",
          "name": "",
          "type": "tuple[]"
        }
      ],
      "stateMutability": "view",
      "type": "function"
    },
    {
      "inputs": [
        {
          "internalType": "uint256",
          "name": "tokenId",
          "type": "uint256"
        }
      ],
      "name": "getApproved",
      "outputs": [
        {
          "internalType": "address",
          "name": "",
          "type": "address"
        }
      ],
      "stateMutability": "view",
      "type": "function"
    },
    {
      "inputs": [
        {
          "internalType": "address",
          "name": "creator",
          "type": "address"
        }
      ],
      "name": "getCreatorEarnings",
      "outputs": [
        {
          "internalType": "uint256",
          "name": "",
          "type": "uint256"
        }
      ],
      "stateMutability": "view",
      "type": "function"
    },
    {
      "inputs": [
        {
          "internalType": "uint256",
          "name": "tokenId",
          "type": "uint256"
        }
      ],
      "name": "getNftMetadata",
      "outputs": [
        {
          "internalType": "string",
          "name": "name_",
          "type": "string"
        },
        {
          "internalType": "string",
          "name": "description",
          "type": "string"
        },
        {
          "internalType": "string",
          "name": "image",
          "type": "string"
        },
        {
          "internalType": "uint256",
          "name": "price",
          "type": "uint256"
        },
        {
          "internalType": "address",
          "name": "creator",
          "type": "address"
        }
      ],
      "stateMutability": "view",
      "type": "function"
    },
    {
      "inputs": [
        {
          "internalType": "uint256",
          "name": "",
          "type": "uint256"
        },
        {
          "internalType": "address",
          "name": "",
          "type": "address"
        }
      ],
      "name": "hasAccess",
      "outputs": [
        {
          "internalType": "bool",
          "name": "",
          "type": "bool"
        }
      ],
      "stateMutability": "view",
      "type": "function"
    },
    {
      "inputs": [
        {
          "internalType": "address",
          "name": "owner",
          "type": "address"
        },
        {
          "internalType": "address",
          "name": "operator",
          "type": "address"
        }
      ],
      "name": "isApprovedForAll",
      "outputs": [
        {
          "internalType": "bool",
          "name": "",
          "type": "bool"
        }
      ],
      "stateMutability": "view",
      "type": "function"
    },
    {
      "inputs": [
        {
          "internalType": "address",
          "name": "to",
          "type": "address"
        },
        {
          "internalType": "string",
          "name": "name_",
          "type": "string"
        },
        {
          "internalType": "string",
          "name": "description",
          "type": "string"
        },
        {
          "internalType": "string",
          "name": "image",
          "type": "string"
        },
        {
          "internalType": "uint256",
          "name": "price",
          "type": "uint256"
        }
      ],
      "name": "mint",
      "outputs": [],
      "stateMutability": "nonpayable",
      "type": "function"
    },
    {
      "inputs": [],
      "name": "name",
      "outputs": [
        {
          "internalType": "string",
          "name": "",
          "type": "string"
        }
      ],
      "stateMutability": "view",
      "type": "function"
    },
    {
      "inputs": [
        {
          "internalType": "uint256",
          "name": "",
          "type": "uint256"
        }
      ],
      "name": "nfts",
      "outputs": [
        {
          "internalType": "uint256",
          "name": "tokenId",
          "type": "uint256"
        },
        {
          "internalType": "string",
          "name": "name",
          "type": "string"
        },
        {
          "internalType": "string",
          "name": "description",
          "type": "string"
        },
        {
          "internalType": "string",
          "name": "image",
          "type": "string"
        },
        {
          "internalType": "uint256",
          "name": "price",
          "type": "uint256"
        },
        {
          "internalType": "address",
          "name": "creator",
          "type": "address"
        }
      ],
      "stateMutability": "view",
      "type": "function"
    },
    {
      "inputs": [],
      "name": "owner",
      "outputs": [
        {
          "internalType": "address",
          "name": "",
          "type": "address"
        }
      ],
      "stateMutability": "view",
      "type": "function"
    },
    {
      "inputs": [
        {
          "internalType": "uint256",
          "name": "tokenId",
          "type": "uint256"
        }
      ],
      "name": "ownerOf",
      "outputs": [
        {
          "internalType": "address",
          "name": "",
          "type": "address"
        }
      ],
      "stateMutability": "view",
      "type": "function"
    },
    {
      "inputs": [
        {
          "internalType": "uint256",
          "name": "tokenId",
          "type": "uint256"
        }
      ],
      "name": "purchaseNFT",
      "outputs": [],
      "stateMutability": "payable",
      "type": "function"
    },
    {
      "inputs": [],
      "name": "renounceOwnership",
      "outputs": [],
      "stateMutability": "nonpayable",
      "type": "function"
    },
    {
      "inputs": [
        {
          "internalType": "address",
          "name": "from",
          "type": "address"
        },
        {
          "internalType": "address",
          "name": "to",
          "type": "address"
        },
        {
          "internalType": "uint256",
          "name": "tokenId",
          "type": "uint256"
        }
      ],
      "name": "safeTransferFrom",
      "outputs": [],
      "stateMutability": "nonpayable",
      "type": "function"
    },
    {
      "inputs": [
        {
          "internalType": "address",
          "name": "from",
          "type": "address"
        },
        {
          "internalType": "address",
          "name": "to",
          "type": "address"
        },
        {
          "internalType": "uint256",
          "name": "tokenId",
          "type": "uint256"
        },
        {
          "internalType": "bytes",
          "name": "data",
          "type": "bytes"
        }
      ],
      "name": "safeTransferFrom",
      "outputs": [],
      "stateMutability": "nonpayable",
      "type": "function"
    },
    {
      "inputs": [
        {
          "internalType": "address",
          "name": "operator",
          "type": "address"
        },
        {
          "internalType": "bool",
          "name": "approved",
          "type": "bool"
        }
      ],
      "name": "setApprovalForAll",
      "outputs": [],
      "stateMutability": "nonpayable",
      "type": "function"
    },
    {
      "inputs": [
        {
          "internalType": "bytes4",
          "name": "interfaceId",
          "type": "bytes4"
        }
      ],
      "name": "supportsInterface",
      "outputs": [
        {
          "internalType": "bool",
          "name": "",
          "type": "bool"
        }
      ],
      "stateMutability": "view",
      "type": "function"
    },
    {
      "inputs": [],
      "name": "symbol",
      "outputs": [
        {
          "internalType": "string",
          "name": "",
          "type": "string"
        }
      ],
      "stateMutability": "view",
      "type": "function"
    },
    {
      "inputs": [
        {
          "internalType": "uint256",
          "name": "tokenId",
          "type": "uint256"
        }
      ],
      "name": "tokenURI",
      "outputs": [
        {
          "internalType": "string",
          "name": "",
          "type": "string"
        }
      ],
      "stateMutability": "view",
      "type": "function"
    },
    {
      "inputs": [],
      "name": "totalSupply",
      "outputs": [
        {
          "internalType": "uint256",
          "name": "",
          "type": "uint256"
        }
      ],
      "stateMutability": "view",
      "type": "function"
    },
    {
      "inputs": [
        {
          "internalType": "address",
          "name": "from",
          "type": "address"
        },
        {
          "internalType": "address",
          "name": "to",
          "type": "address"
        },
        {
          "internalType": "uint256",
          "name": "tokenId",
          "type": "uint256"
        }
      ],
      "name": "transferFrom",
      "outputs": [],
      "stateMutability": "nonpayable",
      "type": "function"
    },
    {
      "inputs": [
        {
          "internalType": "address",
          "name": "newOwner",
          "type": "address"
        }
      ],
      "name": "transferOwnership",
      "outputs": [],
      "stateMutability": "nonpayable",
      "type": "function"
    }
  ],
  "bytecode": "0x608060405234801561001057600080fd5b506040516142c73803806142c78339818101604052810190610032919061037a565b80838381600090816100449190610626565b5080600190816100549190610626565b505050600073ffffffffffffffffffffffffffffffffffffffff168173ffffffffffffffffffffffffffffffffffffffff16036100c95760006040517f1e4fbdf70000000000000000000000000000000000000000000000000000000081526004016100c09190610707565b60405180910390fd5b6100d8816100e160201b60201c565b50505050610722565b6000600760009054906101000a900473ffffffffffffffffffffffffffffffffffffffff16905081600760006101000a81548173ffffffffffffffffffffffffffffffffffffffff021916908373ffffffffffffffffffffffffffffffffffffffff1602179055508173ffffffffffffffffffffffffffffffffffffffff168173ffffffffffffffffffffffffffffffffffffffff167f8be0079c531659141344cd1fd0a4f28419497f9722a3daafe3b4186f6b6457e060405160405180910390a35050565b6000604051905090565b600080fd5b600080fd5b600080fd5b600080fd5b6000601f19601f8301169050919050565b7f4e487b7100000000000000000000000000000000000000000000000000000000600052604160045260246000fd5b61020e826101c5565b810181811067ffffffffffffffff8211171561022d5761022c6101d6565b5b80604052505050565b60006102406101a7565b905061024c8282610205565b919050565b600067ffffffffffffffff82111561026c5761026b6101d6565b5b610275826101c5565b9050602081019050919050565b60005b838110156102a0578082015181840152602081019050610285565b60008484015250505050565b60006102bf6102ba84610251565b610236565b9050828152602081018484840111156102db576102da6101c0565b5b6102e6848285610282565b509392505050565b600082601f830112610303576103026101bb565b5b81516103138482602086016102ac565b91505092915050565b600073ffffffffffffffffffffffffffffffffffffffff82169050919050565b60006103478261031c565b9050919050565b6103578161033c565b811461036257600080fd5b50565b6000815190506103748161034e565b92915050565b600080600060608486031215610393576103926101b1565b5b600084015167ffffffffffffffff8111156103b1576103b06101b6565b5b6103bd868287016102ee565b935050602084015167ffffffffffffffff8111156103de576103dd6101b6565b5b6103ea868287016102ee565b92505060406103fb86828701610365565b9150509250925092565b600081519050919050565b7f4e487b7100000000000000000000000000000000000000000000000000000000600052602260045260246000fd5b6000600282049050600182168061045757607f821691505b60208210810361046a57610469610410565b5b50919050565b60008190508160005260206000209050919050565b60006020601f8301049050919050565b600082821b905092915050565b6000600883026104d27fffffffffffffffffffffffffffffffffffffffffffffffffffffffffffffffff82610495565b6104dc8683610495565b95508019841693508086168417925050509392505050565b6000819050919050565b6000819050919050565b600061052361051e610519846104f4565b6104fe565b6104f4565b9050919050565b6000819050919050565b61053d83610508565b6105516105498261052a565b8484546104a2565b825550505050565b600090565b610566610559565b610571818484610534565b505050565b5b818110156105955761058a60008261055e565b600181019050610577565b5050565b601f8211156105da576105ab81610470565b6105b484610485565b810160208510156105c3578190505b6105d76105cf85610485565b830182610576565b50505b505050565b600082821c905092915050565b60006105fd600019846008026105df565b1980831691505092915050565b600061061683836105ec565b9150826002028217905092915050565b61062f82610405565b67ffffffffffffffff811115610648576106476101d6565b5b610652825461043f565b61065d828285610599565b600060209050601f831160018114610690576000841561067e578287015190505b610688858261060a565b8655506106f0565b601f19841661069e86610470565b60005b828110156106c6578489015182556001820191506020850194506020810190506106a1565b868310156106e357848901516106df601f8916826105ec565b8355505b6001600288020188555050505b505050505050565b6107018161033c565b82525050565b600060208201905061071c60008301846106f8565b92915050565b613b96806107316000396000f3fe6080604052600436106101815760003560e01c8063804396af116100d1578063b88d4fde1161008a578063d13c870311610064578063d13c8703146105b4578063dcb10a04146105f1578063e985e9c51461062e578063f2fde38b1461066b57610181565b8063b88d4fde14610511578063c87b56dd1461053a578063ced141981461057757610181565b8063804396af146103eb5780638da5cb5b1461042857806395d89b41146104535780639ee74dd11461047e578063a22cb465146104a7578063ad27314b146104d057610181565b806323b872dd1161013e5780636352211e116101185780636352211e1461032f57806370a082311461036c578063715018a6146103a9578063732e8d73146103c057610181565b806323b872dd1461029b578063265aa621146102c457806342842e0e1461030657610181565b806301ffc9a71461018657806306fdde03146101c3578063081812fc146101ee578063095ea7b31461022b578063150bde031461025457806318160ddd14610270575b600080fd5b34801561019257600080fd5b506101ad60048036038101906101a89190612adc565b610694565b6040516101ba9190612b24565b60405180910390f35b3480156101cf57600080fd5b506101d86106f5565b6040516101e59190612bcf565b60405180910390f35b3480156101fa57600080fd5b5061021560048036038101906102109190612c27565b610787565b6040516102229190612c95565b60405180910390f35b34801561023757600080fd5b50610252600480360381019061024d9190612cdc565b6107a3565b005b61026e60048036038101906102699190612c27565b6107b9565b005b34801561027c57600080fd5b50610285610a07565b6040516102929190612d2b565b60405180910390f35b3480156102a757600080fd5b506102c260048036038101906102bd9190612d46565b610a0d565b005b3480156102d057600080fd5b506102eb60048036038101906102e69190612c27565b610b0f565b6040516102fd96959493929190612d99565b60405180910390f35b34801561031257600080fd5b5061032d60048036038101906103289190612d46565b610d03565b005b34801561033b57600080fd5b5061035660048036038101906103519190612c27565b610d23565b6040516103639190612c95565b60405180910390f35b34801561037857600080fd5b50610393600480360381019061038e9190612e0f565b610d35565b6040516103a09190612d2b565b60405180910390f35b3480156103b557600080fd5b506103be610def565b005b3480156103cc57600080fd5b506103d5610e03565b6040516103e29190612ffd565b60405180910390f35b3480156103f757600080fd5b50610412600480360381019061040d9190612e0f565b611108565b60405161041f9190612d2b565b60405180910390f35b34801561043457600080fd5b5061043d611151565b60405161044a9190612c95565b60405180910390f35b34801561045f57600080fd5b5061046861117b565b6040516104759190612bcf565b60405180910390f35b34801561048a57600080fd5b506104a560048036038101906104a091906131b4565b61120d565b005b3480156104b357600080fd5b506104ce60048036038101906104c991906132b2565b611401565b005b3480156104dc57600080fd5b506104f760048036038101906104f29190612c27565b611417565b6040516105089594939291906132f2565b60405180910390f35b34801561051d57600080fd5b50610538600480360381019061053391906133fb565b61168e565b005b34801561054657600080fd5b50610561600480360381019061055c9190612c27565b6116b3565b60405161056e9190612bcf565b60405180910390f35b34801561058357600080fd5b5061059e6004803603810190610599919061347e565b6117c6565b6040516105ab9190612b24565b60405180910390f35b3480156105c057600080fd5b506105db60048036038101906105d6919061347e565b6117f5565b6040516105e89190612b24565b60405180910390f35b3480156105fd57600080fd5b5061061860048036038101906106139190612e0f565b61185d565b6040516106259190612d2b565b60405180910390f35b34801561063a57600080fd5b50610655600480360381019061065091906134be565b611875565b6040516106629190612b24565b60405180910390f35b34801561067757600080fd5b50610692600480360381019061068d9190612e0f565b611909565b005b6000634906490660e01b7bffffffffffffffffffffffffffffffffffffffffffffffffffffffff1916827bffffffffffffffffffffffffffffffffffffffffffffffffffffffff191614806106ee57506106ed8261198f565b5b9050919050565b6060600080546107049061352d565b80601f01602080910402602001604051908101604052809291908181526020018280546107309061352d565b801561077d5780601f106107525761010080835404028352916020019161077d565b820191906000526020600020905b81548152906001019060200180831161076057829003601f168201915b5050505050905090565b600061079282611a71565b5061079c82611af9565b9050919050565b6107b582826107b0611b36565b611b3e565b5050565b6000600c600083815260200190815260200160002090508060040154341015610817576040517f08c379a000000000000000000000000000000000000000000000000000000000815260040161080e906135aa565b60405180910390fd5b600b600083815260200190815260200160002060003373ffffffffffffffffffffffffffffffffffffffff1673ffffffffffffffffffffffffffffffffffffffff16815260200190815260200160002060009054906101000a900460ff16156108b5576040517f08c379a00000000000000000000000000000000000000000000000000000000081526004016108ac90613616565b60405180910390fd5b6001600b600084815260200190815260200160002060003373ffffffffffffffffffffffffffffffffffffffff1673ffffffffffffffffffffffffffffffffffffffff16815260200190815260200160002060006101000a81548160ff0219169083151502179055508060050160009054906101000a900473ffffffffffffffffffffffffffffffffffffffff1673ffffffffffffffffffffffffffffffffffffffff166108fc349081150290604051600060405180830381858888f19350505050158015610988573d6000803e3d6000fd5b5034600e60008360050160009054906101000a900473ffffffffffffffffffffffffffffffffffffffff1673ffffffffffffffffffffffffffffffffffffffff1673ffffffffffffffffffffffffffffffffffffffff16815260200190815260200160002060008282546109fc9190613665565b925050819055505050565b60095481565b600073ffffffffffffffffffffffffffffffffffffffff168273ffffffffffffffffffffffffffffffffffffffff1603610a7f5760006040517f64a0ae92000000000000000000000000000000000000000000000000000000008152600401610a769190612c95565b60405180910390fd5b6000610a938383610a8e611b36565b611b50565b90508373ffffffffffffffffffffffffffffffffffffffff168173ffffffffffffffffffffffffffffffffffffffff1614610b09578382826040517f64283d7b000000000000000000000000000000000000000000000000000000008152600401610b0093929190613699565b60405180910390fd5b50505050565b600d602052806000526040600020600091509050806000015490806001018054610b389061352d565b80601f0160208091040260200160405190810160405280929190818152602001828054610b649061352d565b8015610bb15780601f10610b8657610100808354040283529160200191610bb1565b820191906000526020600020905b815481529060010190602001808311610b9457829003601f168201915b505050505090806002018054610bc69061352d565b80601f0160208091040260200160405190810160405280929190818152602001828054610bf29061352d565b8015610c3f5780601f10610c1457610100808354040283529160200191610c3f565b820191906000526020600020905b815481529060010190602001808311610c2257829003601f168201915b505050505090806003018054610c549061352d565b80601f0160208091040260200160405190810160405280929190818152602001828054610c809061352d565b8015610ccd5780601f10610ca257610100808354040283529160200191610ccd565b820191906000526020600020905b815481529060010190602001808311610cb057829003601f168201915b5050505050908060040154908060050160009054906101000a900473ffffffffffffffffffffffffffffffffffffffff16905086565b610d1e8383836040518060200160405280600081525061168e565b505050565b6000610d2e82611a71565b9050919050565b60008073ffffffffffffffffffffffffffffffffffffffff168273ffffffffffffffffffffffffffffffffffffffff1603610da85760006040517f89c62b64000000000000000000000000000000000000000000000000000000008152600401610d9f9190612c95565b60405180910390fd5b600360008373ffffffffffffffffffffffffffffffffffffffff1673ffffffffffffffffffffffffffffffffffffffff168152602001908152602001600020549050919050565b610df7611d6a565b610e016000611df1565b565b60606000600a80549050905060008167ffffffffffffffff811115610e2b57610e2a613029565b5b604051908082528060200260200182016040528015610e6457816020015b610e51612a24565b815260200190600190039081610e495790505b50905060005b828110156110ff576000600a8281548110610e8857610e876136d0565b5b90600052602060002001549050600c60008281526020019081526020016000206040518060c001604052908160008201548152602001600182018054610ecd9061352d565b80601f0160208091040260200160405190810160405280929190818152602001828054610ef99061352d565b8015610f465780601f10610f1b57610100808354040283529160200191610f46565b820191906000526020600020905b815481529060010190602001808311610f2957829003601f168201915b50505050508152602001600282018054610f5f9061352d565b80601f0160208091040260200160405190810160405280929190818152602001828054610f8b9061352d565b8015610fd85780601f10610fad57610100808354040283529160200191610fd8565b820191906000526020600020905b815481529060010190602001808311610fbb57829003601f168201915b50505050508152602001600382018054610ff19061352d565b80601f016020809104026020016040519081016040528092919081815260200182805461101d9061352d565b801561106a5780601f1061103f5761010080835404028352916020019161106a565b820191906000526020600020905b81548152906001019060200180831161104d57829003601f168201915b50505050508152602001600482015481526020016005820160009054906101000a900473ffffffffffffffffffffffffffffffffffffffff1673ffffffffffffffffffffffffffffffffffffffff1673ffffffffffffffffffffffffffffffffffffffff16815250508383815181106110e6576110e56136d0565b5b6020026020010181905250508080600101915050610e6a565b50809250505090565b6000600e60008373ffffffffffffffffffffffffffffffffffffffff1673ffffffffffffffffffffffffffffffffffffffff168152602001908152602001600020549050919050565b6000600760009054906101000a900473ffffffffffffffffffffffffffffffffffffffff16905090565b60606001805461118a9061352d565b80601f01602080910402602001604051908101604052809291908181526020018280546111b69061352d565b80156112035780601f106111d857610100808354040283529160200191611203565b820191906000526020600020905b8154815290600101906020018083116111e657829003601f168201915b5050505050905090565b6112176008611eb7565b60006112236008611ecd565b905061122f8782611edb565b61127d8185858080601f016020809104026020016040519081016040528093929190818152602001838380828437600081840152601f19601f82011690508083019250505050505050611ef9565b6040518060c0016040528082815260200187815260200186815260200185858080601f016020809104026020016040519081016040528093929190818152602001838380828437600081840152601f19601f8201169050808301925050505050505081526020018381526020013373ffffffffffffffffffffffffffffffffffffffff16815250600c600083815260200190815260200160002060008201518160000155602082015181600101908161133691906138ab565b50604082015181600201908161134c91906138ab565b50606082015181600301908161136291906138ab565b506080820151816004015560a08201518160050160006101000a81548173ffffffffffffffffffffffffffffffffffffffff021916908373ffffffffffffffffffffffffffffffffffffffff160217905550905050600960008154809291906113ca9061397d565b9190505550600a81908060018154018082558091505060019003906000526020600020016000909190919091505550505050505050565b61141361140c611b36565b8383611f55565b5050565b60608060606000806000600c60008881526020019081526020016000206040518060c0016040529081600082015481526020016001820180546114599061352d565b80601f01602080910402602001604051908101604052809291908181526020018280546114859061352d565b80156114d25780601f106114a7576101008083540402835291602001916114d2565b820191906000526020600020905b8154815290600101906020018083116114b557829003601f168201915b505050505081526020016002820180546114eb9061352d565b80601f01602080910402602001604051908101604052809291908181526020018280546115179061352d565b80156115645780601f1061153957610100808354040283529160200191611564565b820191906000526020600020905b81548152906001019060200180831161154757829003601f168201915b5050505050815260200160038201805461157d9061352d565b80601f01602080910402602001604051908101604052809291908181526020018280546115a99061352d565b80156115f65780601f106115cb576101008083540402835291602001916115f6565b820191906000526020600020905b8154815290600101906020018083116115d957829003601f168201915b50505050508152602001600482015481526020016005820160009054906101000a900473ffffffffffffffffffffffffffffffffffffffff1673ffffffffffffffffffffffffffffffffffffffff1673ffffffffffffffffffffffffffffffffffffffff1681525050905080602001518160400151826060015183608001518460a00151955095509550955095505091939590929450565b611699848484610a0d565b6116ad6116a4611b36565b858585856120c4565b50505050565b60606116be82611a71565b5060006006600084815260200190815260200160002080546116df9061352d565b80601f016020809104026020016040519081016040528092919081815260200182805461170b9061352d565b80156117585780601f1061172d57610100808354040283529160200191611758565b820191906000526020600020905b81548152906001019060200180831161173b57829003601f168201915b505050505090506000611769612275565b9050600081510361177e5781925050506117c1565b6000825111156117b357808260405160200161179b929190613a01565b604051602081830303815290604052925050506117c1565b6117bc8461228c565b925050505b919050565b600b6020528160005260406000206020528060005260406000206000915091509054906101000a900460ff1681565b6000600b600084815260200190815260200160002060008373ffffffffffffffffffffffffffffffffffffffff1673ffffffffffffffffffffffffffffffffffffffff16815260200190815260200160002060009054906101000a900460ff16905092915050565b600e6020528060005260406000206000915090505481565b6000600560008473ffffffffffffffffffffffffffffffffffffffff1673ffffffffffffffffffffffffffffffffffffffff16815260200190815260200160002060008373ffffffffffffffffffffffffffffffffffffffff1673ffffffffffffffffffffffffffffffffffffffff16815260200190815260200160002060009054906101000a900460ff16905092915050565b611911611d6a565b600073ffffffffffffffffffffffffffffffffffffffff168173ffffffffffffffffffffffffffffffffffffffff16036119835760006040517f1e4fbdf700000000000000000000000000000000000000000000000000000000815260040161197a9190612c95565b60405180910390fd5b61198c81611df1565b50565b60007f80ac58cd000000000000000000000000000000000000000000000000000000007bffffffffffffffffffffffffffffffffffffffffffffffffffffffff1916827bffffffffffffffffffffffffffffffffffffffffffffffffffffffff19161480611a5a57507f5b5e139f000000000000000000000000000000000000000000000000000000007bffffffffffffffffffffffffffffffffffffffffffffffffffffffff1916827bffffffffffffffffffffffffffffffffffffffffffffffffffffffff1916145b80611a6a5750611a69826122f5565b5b9050919050565b600080611a7d8361235f565b9050600073ffffffffffffffffffffffffffffffffffffffff168173ffffffffffffffffffffffffffffffffffffffff1603611af057826040517f7e273289000000000000000000000000000000000000000000000000000000008152600401611ae79190612d2b565b60405180910390fd5b80915050919050565b60006004600083815260200190815260200160002060009054906101000a900473ffffffffffffffffffffffffffffffffffffffff169050919050565b600033905090565b611b4b838383600161239c565b505050565b600080611b5c8461235f565b9050600073ffffffffffffffffffffffffffffffffffffffff168373ffffffffffffffffffffffffffffffffffffffff1614611b9e57611b9d818486612561565b5b600073ffffffffffffffffffffffffffffffffffffffff168173ffffffffffffffffffffffffffffffffffffffff1614611c2f57611be060008560008061239c565b6001600360008373ffffffffffffffffffffffffffffffffffffffff1673ffffffffffffffffffffffffffffffffffffffff168152602001908152602001600020600082825403925050819055505b600073ffffffffffffffffffffffffffffffffffffffff168573ffffffffffffffffffffffffffffffffffffffff1614611cb2576001600360008773ffffffffffffffffffffffffffffffffffffffff1673ffffffffffffffffffffffffffffffffffffffff168152602001908152602001600020600082825401925050819055505b846002600086815260200190815260200160002060006101000a81548173ffffffffffffffffffffffffffffffffffffffff021916908373ffffffffffffffffffffffffffffffffffffffff160217905550838573ffffffffffffffffffffffffffffffffffffffff168273ffffffffffffffffffffffffffffffffffffffff167fddf252ad1be2c89b69c2b068fc378daa952ba7f163c4a11628f55a4df523b3ef60405160405180910390a4809150509392505050565b611d72611b36565b73ffffffffffffffffffffffffffffffffffffffff16611d90611151565b73ffffffffffffffffffffffffffffffffffffffff1614611def57611db3611b36565b6040517f118cdaa7000000000000000000000000000000000000000000000000000000008152600401611de69190612c95565b60405180910390fd5b565b6000600760009054906101000a900473ffffffffffffffffffffffffffffffffffffffff16905081600760006101000a81548173ffffffffffffffffffffffffffffffffffffffff021916908373ffffffffffffffffffffffffffffffffffffffff1602179055508173ffffffffffffffffffffffffffffffffffffffff168173ffffffffffffffffffffffffffffffffffffffff167f8be0079c531659141344cd1fd0a4f28419497f9722a3daafe3b4186f6b6457e060405160405180910390a35050565b6001816000016000828254019250508190555050565b600081600001549050919050565b611ef5828260405180602001604052806000815250612625565b5050565b80600660008481526020019081526020016000209081611f1991906138ab565b507ff8e1a15aba9398e019f0b49df1a4fde98ee17ae345cb5f6b5e2c27f5033e8ce782604051611f499190612d2b565b60405180910390a15050565b600073ffffffffffffffffffffffffffffffffffffffff168273ffffffffffffffffffffffffffffffffffffffff1603611fc657816040517f5b08ba18000000000000000000000000000000000000000000000000000000008152600401611fbd9190612c95565b60405180910390fd5b80600560008573ffffffffffffffffffffffffffffffffffffffff1673ffffffffffffffffffffffffffffffffffffffff16815260200190815260200160002060008473ffffffffffffffffffffffffffffffffffffffff1673ffffffffffffffffffffffffffffffffffffffff16815260200190815260200160002060006101000a81548160ff0219169083151502179055508173ffffffffffffffffffffffffffffffffffffffff168373ffffffffffffffffffffffffffffffffffffffff167f17307eab39ab6107e8899845ad3d59bd9653f200f220920489ca2b5937696c31836040516120b79190612b24565b60405180910390a3505050565b60008373ffffffffffffffffffffffffffffffffffffffff163b111561226e578273ffffffffffffffffffffffffffffffffffffffff1663150b7a02868685856040518563ffffffff1660e01b81526004016121239493929190613a7a565b6020604051808303816000875af192505050801561215f57506040513d601f19601f8201168201806040525081019061215c9190613adb565b60015b6121e3573d806000811461218f576040519150601f19603f3d011682016040523d82523d6000602084013e612194565b606091505b5060008151036121db57836040517f64a0ae920000000000000000000000000000000000000000000000000000000081526004016121d29190612c95565b60405180910390fd5b805181602001fd5b63150b7a0260e01b7bffffffffffffffffffffffffffffffffffffffffffffffffffffffff1916817bffffffffffffffffffffffffffffffffffffffffffffffffffffffff19161461226c57836040517f64a0ae920000000000000000000000000000000000000000000000000000000081526004016122639190612c95565b60405180910390fd5b505b5050505050565b606060405180602001604052806000815250905090565b606061229782611a71565b5060006122a2612275565b905060008151116122c257604051806020016040528060008152506122ed565b806122cc84612649565b6040516020016122dd929190613a01565b6040516020818303038152906040525b915050919050565b60007f01ffc9a7000000000000000000000000000000000000000000000000000000007bffffffffffffffffffffffffffffffffffffffffffffffffffffffff1916827bffffffffffffffffffffffffffffffffffffffffffffffffffffffff1916149050919050565b60006002600083815260200190815260200160002060009054906101000a900473ffffffffffffffffffffffffffffffffffffffff169050919050565b80806123d55750600073ffffffffffffffffffffffffffffffffffffffff168273ffffffffffffffffffffffffffffffffffffffff1614155b156125095760006123e584611a71565b9050600073ffffffffffffffffffffffffffffffffffffffff168373ffffffffffffffffffffffffffffffffffffffff161415801561245057508273ffffffffffffffffffffffffffffffffffffffff168173ffffffffffffffffffffffffffffffffffffffff1614155b801561246357506124618184611875565b155b156124a557826040517fa9fbf51f00000000000000000000000000000000000000000000000000000000815260040161249c9190612c95565b60405180910390fd5b811561250757838573ffffffffffffffffffffffffffffffffffffffff168273ffffffffffffffffffffffffffffffffffffffff167f8c5be1e5ebec7d5bd14f71427d1e84f3dd0314c0f7b2291e5b200ac8c7c3b92560405160405180910390a45b505b836004600085815260200190815260200160002060006101000a81548173ffffffffffffffffffffffffffffffffffffffff021916908373ffffffffffffffffffffffffffffffffffffffff16021790555050505050565b61256c838383612717565b61262057600073ffffffffffffffffffffffffffffffffffffffff168373ffffffffffffffffffffffffffffffffffffffff16036125e157806040517f7e2732890000000000000000000000000000000000000000000000000000000081526004016125d89190612d2b565b60405180910390fd5b81816040517f177e802f000000000000000000000000000000000000000000000000000000008152600401612617929190613b08565b60405180910390fd5b505050565b61262f83836127d8565b61264461263a611b36565b60008585856120c4565b505050565b606060006001612658846128d1565b01905060008167ffffffffffffffff81111561267757612676613029565b5b6040519080825280601f01601f1916602001820160405280156126a95781602001600182028036833780820191505090505b509050600082602001820190505b60011561270c578080600190039150507f3031323334353637383961626364656600000000000000000000000000000000600a86061a8153600a8581612700576126ff613b31565b5b049450600085036126b7575b819350505050919050565b60008073ffffffffffffffffffffffffffffffffffffffff168373ffffffffffffffffffffffffffffffffffffffff16141580156127cf57508273ffffffffffffffffffffffffffffffffffffffff168473ffffffffffffffffffffffffffffffffffffffff161480612790575061278f8484611875565b5b806127ce57508273ffffffffffffffffffffffffffffffffffffffff166127b683611af9565b73ffffffffffffffffffffffffffffffffffffffff16145b5b90509392505050565b600073ffffffffffffffffffffffffffffffffffffffff168273ffffffffffffffffffffffffffffffffffffffff160361284a5760006040517f64a0ae920000000000000000000000000000000000000000000000000000000081526004016128419190612c95565b60405180910390fd5b600061285883836000611b50565b9050600073ffffffffffffffffffffffffffffffffffffffff168173ffffffffffffffffffffffffffffffffffffffff16146128cc5760006040517f73c6ac6e0000000000000000000000000000000000000000000000000000000081526004016128c39190612c95565b60405180910390fd5b505050565b600080600090507a184f03e93ff9f4daa797ed6e38ed64bf6a1f010000000000000000831061292f577a184f03e93ff9f4daa797ed6e38ed64bf6a1f010000000000000000838161292557612924613b31565b5b0492506040810190505b6d04ee2d6d415b85acef8100000000831061296c576d04ee2d6d415b85acef8100000000838161296257612961613b31565b5b0492506020810190505b662386f26fc10000831061299b57662386f26fc10000838161299157612990613b31565b5b0492506010810190505b6305f5e10083106129c4576305f5e10083816129ba576129b9613b31565b5b0492506008810190505b61271083106129e95761271083816129df576129de613b31565b5b0492506004810190505b60648310612a0c5760648381612a0257612a01613b31565b5b0492506002810190505b600a8310612a1b576001810190505b80915050919050565b6040518060c001604052806000815260200160608152602001606081526020016060815260200160008152602001600073ffffffffffffffffffffffffffffffffffffffff1681525090565b6000604051905090565b600080fd5b600080fd5b60007fffffffff0000000000000000000000000000000000000000000000000000000082169050919050565b612ab981612a84565b8114612ac457600080fd5b50565b600081359050612ad681612ab0565b92915050565b600060208284031215612af257612af1612a7a565b5b6000612b0084828501612ac7565b91505092915050565b60008115159050919050565b612b1e81612b09565b82525050565b6000602082019050612b396000830184612b15565b92915050565b600081519050919050565b600082825260208201905092915050565b60005b83811015612b79578082015181840152602081019050612b5e565b60008484015250505050565b6000601f19601f8301169050919050565b6000612ba182612b3f565b612bab8185612b4a565b9350612bbb818560208601612b5b565b612bc481612b85565b840191505092915050565b60006020820190508181036000830152612be98184612b96565b905092915050565b6000819050919050565b612c0481612bf1565b8114612c0f57600080fd5b50565b600081359050612c2181612bfb565b92915050565b600060208284031215612c3d57612c3c612a7a565b5b6000612c4b84828501612c12565b91505092915050565b600073ffffffffffffffffffffffffffffffffffffffff82169050919050565b6000612c7f82612c54565b9050919050565b612c8f81612c74565b82525050565b6000602082019050612caa6000830184612c86565b92915050565b612cb981612c74565b8114612cc457600080fd5b50565b600081359050612cd681612cb0565b92915050565b60008060408385031215612cf357612cf2612a7a565b5b6000612d0185828601612cc7565b9250506020612d1285828601612c12565b9150509250929050565b612d2581612bf1565b82525050565b6000602082019050612d406000830184612d1c565b92915050565b600080600060608486031215612d5f57612d5e612a7a565b5b6000612d6d86828701612cc7565b9350506020612d7e86828701612cc7565b9250506040612d8f86828701612c12565b9150509250925092565b600060c082019050612dae6000830189612d1c565b8181036020830152612dc08188612b96565b90508181036040830152612dd48187612b96565b90508181036060830152612de88186612b96565b9050612df76080830185612d1c565b612e0460a0830184612c86565b979650505050505050565b600060208284031215612e2557612e24612a7a565b5b6000612e3384828501612cc7565b91505092915050565b600081519050919050565b600082825260208201905092915050565b6000819050602082019050919050565b612e7181612bf1565b82525050565b600082825260208201905092915050565b6000612e9382612b3f565b612e9d8185612e77565b9350612ead818560208601612b5b565b612eb681612b85565b840191505092915050565b612eca81612c74565b82525050565b600060c083016000830151612ee86000860182612e68565b5060208301518482036020860152612f008282612e88565b91505060408301518482036040860152612f1a8282612e88565b91505060608301518482036060860152612f348282612e88565b9150506080830151612f496080860182612e68565b5060a0830151612f5c60a0860182612ec1565b508091505092915050565b6000612f738383612ed0565b905092915050565b6000602082019050919050565b6000612f9382612e3c565b612f9d8185612e47565b935083602082028501612faf85612e58565b8060005b85811015612feb5784840389528151612fcc8582612f67565b9450612fd783612f7b565b925060208a01995050600181019050612fb3565b50829750879550505050505092915050565b600060208201905081810360008301526130178184612f88565b905092915050565b600080fd5b600080fd5b7f4e487b7100000000000000000000000000000000000000000000000000000000600052604160045260246000fd5b61306182612b85565b810181811067ffffffffffffffff821117156130805761307f613029565b5b80604052505050565b6000613093612a70565b905061309f8282613058565b919050565b600067ffffffffffffffff8211156130bf576130be613029565b5b6130c882612b85565b9050602081019050919050565b82818337600083830152505050565b60006130f76130f2846130a4565b613089565b90508281526020810184848401111561311357613112613024565b5b61311e8482856130d5565b509392505050565b600082601f83011261313b5761313a61301f565b5b813561314b8482602086016130e4565b91505092915050565b600080fd5b600080fd5b60008083601f8401126131745761317361301f565b5b8235905067ffffffffffffffff81111561319157613190613154565b5b6020830191508360018202830111156131ad576131ac613159565b5b9250929050565b60008060008060008060a087890312156131d1576131d0612a7a565b5b60006131df89828a01612cc7565b965050602087013567ffffffffffffffff811115613200576131ff612a7f565b5b61320c89828a01613126565b955050604087013567ffffffffffffffff81111561322d5761322c612a7f565b5b61323989828a01613126565b945050606087013567ffffffffffffffff81111561325a57613259612a7f565b5b61326689828a0161315e565b9350935050608061327989828a01612c12565b9150509295509295509295565b61328f81612b09565b811461329a57600080fd5b50565b6000813590506132ac81613286565b92915050565b600080604083850312156132c9576132c8612a7a565b5b60006132d785828601612cc7565b92505060206132e88582860161329d565b9150509250929050565b600060a082019050818103600083015261330c8188612b96565b905081810360208301526133208187612b96565b905081810360408301526133348186612b96565b90506133436060830185612d1c565b6133506080830184612c86565b9695505050505050565b600067ffffffffffffffff82111561337557613374613029565b5b61337e82612b85565b9050602081019050919050565b600061339e6133998461335a565b613089565b9050828152602081018484840111156133ba576133b9613024565b5b6133c58482856130d5565b509392505050565b600082601f8301126133e2576133e161301f565b5b81356133f284826020860161338b565b91505092915050565b6000806000806080858703121561341557613414612a7a565b5b600061342387828801612cc7565b945050602061343487828801612cc7565b935050604061344587828801612c12565b925050606085013567ffffffffffffffff81111561346657613465612a7f565b5b613472878288016133cd565b91505092959194509250565b6000806040838503121561349557613494612a7a565b5b60006134a385828601612c12565b92505060206134b485828601612cc7565b9150509250929050565b600080604083850312156134d5576134d4612a7a565b5b60006134e385828601612cc7565b92505060206134f485828601612cc7565b9150509250929050565b7f4e487b7100000000000000000000000000000000000000000000000000000000600052602260045260246000fd5b6000600282049050600182168061354557607f821691505b602082108103613558576135576134fe565b5b50919050565b7f496e73756666696369656e742066756e64730000000000000000000000000000600082015250565b6000613594601283612b4a565b915061359f8261355e565b602082019050919050565b600060208201905081810360008301526135c381613587565b9050919050565b7f416c726561647920707572636861736564000000000000000000000000000000600082015250565b6000613600601183612b4a565b915061360b826135ca565b602082019050919050565b6000602082019050818103600083015261362f816135f3565b9050919050565b7f4e487b7100000000000000000000000000000000000000000000000000000000600052601160045260246000fd5b600061367082612bf1565b915061367b83612bf1565b925082820190508082111561369357613692613636565b5b92915050565b60006060820190506136ae6000830186612c86565b6136bb6020830185612d1c565b6136c86040830184612c86565b949350505050565b7f4e487b7100000000000000000000000000000000000000000000000000000000600052603260045260246000fd5b60008190508160005260206000209050919050565b60006020601f8301049050919050565b600082821b905092915050565b6000600883026137617fffffffffffffffffffffffffffffffffffffffffffffffffffffffffffffffff82613724565b61376b8683613724565b95508019841693508086168417925050509392505050565b6000819050919050565b60006137a86137a361379e84612bf1565b613783565b612bf1565b9050919050565b6000819050919050565b6137c28361378d565b6137d66137ce826137af565b848454613731565b825550505050565b600090565b6137eb6137de565b6137f68184846137b9565b505050565b5b8181101561381a5761380f6000826137e3565b6001810190506137fc565b5050565b601f82111561385f57613830816136ff565b61383984613714565b81016020851015613848578190505b61385c61385485613714565b8301826137fb565b50505b505050565b600082821c905092915050565b600061388260001984600802613864565b1980831691505092915050565b600061389b8383613871565b9150826002028217905092915050565b6138b482612b3f565b67ffffffffffffffff8111156138cd576138cc613029565b5b6138d7825461352d565b6138e282828561381e565b600060209050601f8311600181146139155760008415613903578287015190505b61390d858261388f565b865550613975565b601f198416613923866136ff565b60005b8281101561394b57848901518255600182019150602085019450602081019050613926565b868310156139685784890151613964601f891682613871565b8355505b6001600288020188555050505b505050505050565b600061398882612bf1565b91507fffffffffffffffffffffffffffffffffffffffffffffffffffffffffffffffff82036139ba576139b9613636565b5b600182019050919050565b600081905092915050565b60006139db82612b3f565b6139e581856139c5565b93506139f5818560208601612b5b565b80840191505092915050565b6000613a0d82856139d0565b9150613a1982846139d0565b91508190509392505050565b600081519050919050565b600082825260208201905092915050565b6000613a4c82613a25565b613a568185613a30565b9350613a66818560208601612b5b565b613a6f81612b85565b840191505092915050565b6000608082019050613a8f6000830187612c86565b613a9c6020830186612c86565b613aa96040830185612d1c565b8181036060830152613abb8184613a41565b905095945050505050565b600081519050613ad581612ab0565b92915050565b600060208284031215613af157613af0612a7a565b5b6000613aff84828501613ac6565b91505092915050565b6000604082019050613b1d6000830185612c86565b613b2a6020830184612d1c565b9392505050565b7f4e487b7100000000000000000000000000000000000000000000000000000000600052601260045260246000fdfea26469706673582212200cc38e40a8092606cb8b0c984fac3235ab11936cd5cd7a8e7c6ba7d2d068cc7d64736f6c634300081c0033",
  "linkReferences": {},
  "deployedLinkReferences": {}
}