{
  "_format": "hh-sol-artifact-1",
  "contractName": "RewardToken",
  "sourceName": "contracts/RewardToken.sol",
  "abi": [
    {
      "inputs": [],
      "stateMutability": "nonpayable",
      "type": "constructor"
    },
    {
      "inputs": [
        {
          "internalType": "address",
          "name": "spender",
          "type": "address"
        },
        {
          "internalType": "uint256",
          "name": "allowance",
          "type": "uint256"
        },
        {
          "internalType": "uint256",
          "name": "needed",
          "type": "uint256"
        }
      ],
      "name": "ERC20InsufficientAllowance",
      "type": "error"
    },
    {
      "inputs": [
        {
          "internalType": "address",
          "name": "sender",
          "type": "address"
        },
        {
          "internalType": "uint256",
          "name": "balance",
          "type": "uint256"
        },
        {
          "internalType": "uint256",
          "name": "needed",
          "type": "uint256"
        }
      ],
      "name": "ERC20InsufficientBalance",
      "type": "error"
    },
    {
      "inputs": [
        {
          "internalType": "address",
          "name": "approver",
          "type": "address"
        }
      ],
      "name": "ERC20InvalidApprover",
      "type": "error"
    },
    {
      "inputs": [
        {
          "internalType": "address",
          "name": "receiver",
          "type": "address"
        }
      ],
      "name": "ERC20InvalidReceiver",
      "type": "error"
    },
    {
      "inputs": [
        {
          "internalType": "address",
          "name": "sender",
          "type": "address"
        }
      ],
      "name": "ERC20InvalidSender",
      "type": "error"
    },
    {
      "inputs": [
        {
          "internalType": "address",
          "name": "spender",
          "type": "address"
        }
      ],
      "name": "ERC20InvalidSpender",
      "type": "error"
    },
    {
      "anonymous": false,
      "inputs": [
        {
          "indexed": true,
          "internalType": "address",
          "name": "owner",
          "type": "address"
        },
        {
          "indexed": true,
          "internalType": "address",
          "name": "spender",
          "type": "address"
        },
        {
          "indexed": false,
          "internalType": "uint256",
          "name": "value",
          "type": "uint256"
        }
      ],
      "name": "Approval",
      "type": "event"
    },
    {
      "anonymous": false,
      "inputs": [
        {
          "indexed": true,
          "internalType": "address",
          "name": "from",
          "type": "address"
        },
        {
          "indexed": true,
          "internalType": "address",
          "name": "to",
          "type": "address"
        },
        {
          "indexed": true,
          "internalType": "uint256",
          "name": "amount",
          "type": "uint256"
        }
      ],
      "name": "Approve",
      "type": "event"
    },
    {
      "anonymous": false,
      "inputs": [
        {
          "indexed": true,
          "internalType": "address",
          "name": "user",
          "type": "address"
        },
        {
          "indexed": true,
          "internalType": "uint256",
          "name": "amount",
          "type": "uint256"
        }
      ],
      "name": "Rewarded",
      "type": "event"
    },
    {
      "anonymous": false,
      "inputs": [
        {
          "indexed": true,
          "internalType": "address",
          "name": "from",
          "type": "address"
        },
        {
          "indexed": true,
          "internalType": "address",
          "name": "to",
          "type": "address"
        },
        {
          "indexed": false,
          "internalType": "uint256",
          "name": "value",
          "type": "uint256"
        }
      ],
      "name": "Transfer",
      "type": "event"
    },
    {
      "anonymous": false,
      "inputs": [
        {
          "indexed": true,
          "internalType": "address",
          "name": "creator",
          "type": "address"
        },
        {
          "indexed": false,
          "internalType": "string",
          "name": "imgHash",
          "type": "string"
        },
        {
          "indexed": false,
          "internalType": "uint256",
          "name": "totalViews",
          "type": "uint256"
        }
      ],
      "name": "ViewsIncremented",
      "type": "event"
    },
    {
      "inputs": [
        {
          "internalType": "address",
          "name": "owner",
          "type": "address"
        },
        {
          "internalType": "address",
          "name": "spender",
          "type": "address"
        }
      ],
      "name": "allowance",
      "outputs": [
        {
          "internalType": "uint256",
          "name": "",
          "type": "uint256"
        }
      ],
      "stateMutability": "view",
      "type": "function"
    },
    {
      "inputs": [
        {
          "internalType": "address",
          "name": "spender",
          "type": "address"
        },
        {
          "internalType": "uint256",
          "name": "value",
          "type": "uint256"
        }
      ],
      "name": "approve",
      "outputs": [
        {
          "internalType": "bool",
          "name": "",
          "type": "bool"
        }
      ],
      "stateMutability": "nonpayable",
      "type": "function"
    },
    {
      "inputs": [
        {
          "internalType": "address",
          "name": "account",
          "type": "address"
        }
      ],
      "name": "balanceOf",
      "outputs": [
        {
          "internalType": "uint256",
          "name": "",
          "type": "uint256"
        }
      ],
      "stateMutability": "view",
      "type": "function"
    },
    {
      "inputs": [
        {
          "internalType": "address",
          "name": "_user",
          "type": "address"
        }
      ],
      "name": "checkRewardEligibility",
      "outputs": [
        {
          "internalType": "bool",
          "name": "",
          "type": "bool"
        }
      ],
      "stateMutability": "view",
      "type": "function"
    },
    {
      "inputs": [],
      "name": "decimals",
      "outputs": [
        {
          "internalType": "uint8",
          "name": "",
          "type": "uint8"
        }
      ],
      "stateMutability": "view",
      "type": "function"
    },
    {
      "inputs": [
        {
          "internalType": "address",
          "name": "creator",
          "type": "address"
        },
        {
          "internalType": "string",
          "name": "imgHash",
          "type": "string"
        }
      ],
      "name": "getViews",
      "outputs": [
        {
          "internalType": "uint256",
          "name": "",
          "type": "uint256"
        }
      ],
      "stateMutability": "view",
      "type": "function"
    },
    {
      "inputs": [
        {
          "internalType": "address",
          "name": "account",
          "type": "address"
        }
      ],
      "name": "getbalanceOf",
      "outputs": [
        {
          "internalType": "uint256",
          "name": "",
          "type": "uint256"
        }
      ],
      "stateMutability": "view",
      "type": "function"
    },
    {
      "inputs": [
        {
          "internalType": "address",
          "name": "creator",
          "type": "address"
        },
        {
          "internalType": "string",
          "name": "imgHash",
          "type": "string"
        }
      ],
      "name": "incrementViews",
      "outputs": [],
      "stateMutability": "nonpayable",
      "type": "function"
    },
    {
      "inputs": [
        {
          "internalType": "address",
          "name": "",
          "type": "address"
        }
      ],
      "name": "lastRewarded",
      "outputs": [
        {
          "internalType": "uint256",
          "name": "",
          "type": "uint256"
        }
      ],
      "stateMutability": "view",
      "type": "function"
    },
    {
      "inputs": [
        {
          "internalType": "address",
          "name": "",
          "type": "address"
        },
        {
          "internalType": "string",
          "name": "",
          "type": "string"
        }
      ],
      "name": "lastRewardedViews",
      "outputs": [
        {
          "internalType": "uint256",
          "name": "",
          "type": "uint256"
        }
      ],
      "stateMutability": "view",
      "type": "function"
    },
    {
      "inputs": [
        {
          "internalType": "address",
          "name": "to",
          "type": "address"
        },
        {
          "internalType": "uint256",
          "name": "amount",
          "type": "uint256"
        }
      ],
      "name": "mint",
      "outputs": [],
      "stateMutability": "nonpayable",
      "type": "function"
    },
    {
      "inputs": [],
      "name": "name",
      "outputs": [
        {
          "internalType": "string",
          "name": "",
          "type": "string"
        }
      ],
      "stateMutability": "view",
      "type": "function"
    },
    {
      "inputs": [
        {
          "internalType": "address",
          "name": "",
          "type": "address"
        },
        {
          "internalType": "string",
          "name": "",
          "type": "string"
        }
      ],
      "name": "nftViews",
      "outputs": [
        {
          "internalType": "uint256",
          "name": "",
          "type": "uint256"
        }
      ],
      "stateMutability": "view",
      "type": "function"
    },
    {
      "inputs": [],
      "name": "owner",
      "outputs": [
        {
          "internalType": "address",
          "name": "",
          "type": "address"
        }
      ],
      "stateMutability": "view",
      "type": "function"
    },
    {
      "inputs": [
        {
          "internalType": "uint256",
          "name": "amount",
          "type": "uint256"
        },
        {
          "internalType": "address",
          "name": "user",
          "type": "address"
        }
      ],
      "name": "reward",
      "outputs": [
        {
          "internalType": "bool",
          "name": "success",
          "type": "bool"
        }
      ],
      "stateMutability": "nonpayable",
      "type": "function"
    },
    {
      "inputs": [],
      "name": "rewardAmount",
      "outputs": [
        {
          "internalType": "uint256",
          "name": "",
          "type": "uint256"
        }
      ],
      "stateMutability": "view",
      "type": "function"
    },
    {
      "inputs": [],
      "name": "rewardInterval",
      "outputs": [
        {
          "internalType": "uint256",
          "name": "",
          "type": "uint256"
        }
      ],
      "stateMutability": "view",
      "type": "function"
    },
    {
      "inputs": [
        {
          "internalType": "address",
          "name": "_user",
          "type": "address"
        }
      ],
      "name": "rewardUser",
      "outputs": [
        {
          "internalType": "bool",
          "name": "success",
          "type": "bool"
        }
      ],
      "stateMutability": "nonpayable",
      "type": "function"
    },
    {
      "inputs": [],
      "name": "symbol",
      "outputs": [
        {
          "internalType": "string",
          "name": "",
          "type": "string"
        }
      ],
      "stateMutability": "view",
      "type": "function"
    },
    {
      "inputs": [],
      "name": "totalSupply",
      "outputs": [
        {
          "internalType": "uint256",
          "name": "",
          "type": "uint256"
        }
      ],
      "stateMutability": "view",
      "type": "function"
    },
    {
      "inputs": [
        {
          "internalType": "address",
          "name": "to",
          "type": "address"
        },
        {
          "internalType": "uint256",
          "name": "value",
          "type": "uint256"
        }
      ],
      "name": "transfer",
      "outputs": [
        {
          "internalType": "bool",
          "name": "",
          "type": "bool"
        }
      ],
      "stateMutability": "nonpayable",
      "type": "function"
    },
    {
      "inputs": [
        {
          "internalType": "address",
          "name": "from",
          "type": "address"
        },
        {
          "internalType": "address",
          "name": "to",
          "type": "address"
        },
        {
          "internalType": "uint256",
          "name": "value",
          "type": "uint256"
        }
      ],
      "name": "transferFrom",
      "outputs": [
        {
          "internalType": "bool",
          "name": "",
          "type": "bool"
        }
      ],
      "stateMutability": "nonpayable",
      "type": "function"
    }
  ],
  "bytecode": "0x6080604052678ac7230489e800006006556201518060075534801561002357600080fd5b506040518060400160405280600581526020017f4d617465580000000000000000000000000000000000000000000000000000008152506040518060400160405280600381526020017f4d54580000000000000000000000000000000000000000000000000000000000815250816003908161009f9190610612565b5080600490816100af9190610612565b5050506100cf336c0c9f2c9cd04674edea4000000061011560201b60201c565b33600560006101000a81548173ffffffffffffffffffffffffffffffffffffffff021916908373ffffffffffffffffffffffffffffffffffffffff160217905550610804565b600073ffffffffffffffffffffffffffffffffffffffff168273ffffffffffffffffffffffffffffffffffffffff16036101875760006040517fec442f0500000000000000000000000000000000000000000000000000000000815260040161017e9190610725565b60405180910390fd5b6101996000838361019d60201b60201c565b5050565b600073ffffffffffffffffffffffffffffffffffffffff168373ffffffffffffffffffffffffffffffffffffffff16036101ef5780600260008282546101e3919061076f565b925050819055506102c2565b60008060008573ffffffffffffffffffffffffffffffffffffffff1673ffffffffffffffffffffffffffffffffffffffff1681526020019081526020016000205490508181101561027b578381836040517fe450d38c000000000000000000000000000000000000000000000000000000008152600401610272939291906107b2565b60405180910390fd5b8181036000808673ffffffffffffffffffffffffffffffffffffffff1673ffffffffffffffffffffffffffffffffffffffff16815260200190815260200160002081905550505b600073ffffffffffffffffffffffffffffffffffffffff168273ffffffffffffffffffffffffffffffffffffffff160361030b5780600260008282540392505081905550610358565b806000808473ffffffffffffffffffffffffffffffffffffffff1673ffffffffffffffffffffffffffffffffffffffff168152602001908152602001600020600082825401925050819055505b8173ffffffffffffffffffffffffffffffffffffffff168373ffffffffffffffffffffffffffffffffffffffff167fddf252ad1be2c89b69c2b068fc378daa952ba7f163c4a11628f55a4df523b3ef836040516103b591906107e9565b60405180910390a3505050565b600081519050919050565b7f4e487b7100000000000000000000000000000000000000000000000000000000600052604160045260246000fd5b7f4e487b7100000000000000000000000000000000000000000000000000000000600052602260045260246000fd5b6000600282049050600182168061044357607f821691505b602082108103610456576104556103fc565b5b50919050565b60008190508160005260206000209050919050565b60006020601f8301049050919050565b600082821b905092915050565b6000600883026104be7fffffffffffffffffffffffffffffffffffffffffffffffffffffffffffffffff82610481565b6104c88683610481565b95508019841693508086168417925050509392505050565b6000819050919050565b6000819050919050565b600061050f61050a610505846104e0565b6104ea565b6104e0565b9050919050565b6000819050919050565b610529836104f4565b61053d61053582610516565b84845461048e565b825550505050565b600090565b610552610545565b61055d818484610520565b505050565b5b818110156105815761057660008261054a565b600181019050610563565b5050565b601f8211156105c6576105978161045c565b6105a084610471565b810160208510156105af578190505b6105c36105bb85610471565b830182610562565b50505b505050565b600082821c905092915050565b60006105e9600019846008026105cb565b1980831691505092915050565b600061060283836105d8565b9150826002028217905092915050565b61061b826103c2565b67ffffffffffffffff811115610634576106336103cd565b5b61063e825461042b565b610649828285610585565b600060209050601f83116001811461067c576000841561066a578287015190505b61067485826105f6565b8655506106dc565b601f19841661068a8661045c565b60005b828110156106b25784890151825560018201915060208501945060208101905061068d565b868310156106cf57848901516106cb601f8916826105d8565b8355505b6001600288020188555050505b505050505050565b600073ffffffffffffffffffffffffffffffffffffffff82169050919050565b600061070f826106e4565b9050919050565b61071f81610704565b82525050565b600060208201905061073a6000830184610716565b92915050565b7f4e487b7100000000000000000000000000000000000000000000000000000000600052601160045260246000fd5b600061077a826104e0565b9150610785836104e0565b925082820190508082111561079d5761079c610740565b5b92915050565b6107ac816104e0565b82525050565b60006060820190506107c76000830186610716565b6107d460208301856107a3565b6107e160408301846107a3565b949350505050565b60006020820190506107fe60008301846107a3565b92915050565b6120d7806108136000396000f3fe608060405234801561001057600080fd5b50600436106101425760003560e01c80638a02b9a8116100b8578063a9059cbb1161007c578063a9059cbb146103c5578063bec4de3f146103f5578063dd62ed3e14610413578063f7b2a7be14610443578063f934d6fa14610461578063fed816bf1461049157610142565b80638a02b9a81461030d5780638da5cb5b1461032957806395d89b411461034757806395f5412c14610365578063a6afd7db1461039557610142565b8063313ce5671161010a578063313ce5671461021357806340c10f191461023157806347e851fa1461024d578063675e4db91461027d57806370a08231146102ad57806371bb61f3146102dd57610142565b806306fdde0314610147578063095ea7b31461016557806318160ddd1461019557806323b872dd146101b357806326754a11146101e3575b600080fd5b61014f6104c1565b60405161015c919061182c565b60405180910390f35b61017f600480360381019061017a91906118f6565b610553565b60405161018c9190611951565b60405180910390f35b61019d610576565b6040516101aa919061197b565b60405180910390f35b6101cd60048036038101906101c89190611996565b610580565b6040516101da9190611951565b60405180910390f35b6101fd60048036038101906101f891906119e9565b6105af565b60405161020a9190611951565b60405180910390f35b61021b610608565b6040516102289190611a32565b60405180910390f35b61024b600480360381019061024691906118f6565b610611565b005b610267600480360381019061026291906119e9565b610679565b604051610274919061197b565b60405180910390f35b61029760048036038101906102929190611b82565b61068b565b6040516102a4919061197b565b60405180910390f35b6102c760048036038101906102c291906119e9565b6106c6565b6040516102d4919061197b565b60405180910390f35b6102f760048036038101906102f29190611bde565b61070e565b6040516103049190611951565b60405180910390f35b61032760048036038101906103229190611b82565b610989565b005b610331610c3d565b60405161033e9190611c2d565b60405180910390f35b61034f610c63565b60405161035c919061182c565b60405180910390f35b61037f600480360381019061037a9190611b82565b610cf5565b60405161038c919061197b565b60405180910390f35b6103af60048036038101906103aa91906119e9565b610d5b565b6040516103bc9190611951565b60405180910390f35b6103df60048036038101906103da91906118f6565b611072565b6040516103ec9190611951565b60405180910390f35b6103fd611095565b60405161040a919061197b565b60405180910390f35b61042d60048036038101906104289190611c48565b61109b565b60405161043a919061197b565b60405180910390f35b61044b611122565b604051610458919061197b565b60405180910390f35b61047b600480360381019061047691906119e9565b611128565b604051610488919061197b565b60405180910390f35b6104ab60048036038101906104a69190611b82565b611140565b6040516104b8919061197b565b60405180910390f35b6060600380546104d090611cb7565b80601f01602080910402602001604051908101604052809291908181526020018280546104fc90611cb7565b80156105495780601f1061051e57610100808354040283529160200191610549565b820191906000526020600020905b81548152906001019060200180831161052c57829003601f168201915b5050505050905090565b60008061055e61117b565b905061056b818585611183565b600191505092915050565b6000600254905090565b60008061058b61117b565b9050610598858285611195565b6105a385858561122a565b60019150509392505050565b6000600754600860008473ffffffffffffffffffffffffffffffffffffffff1673ffffffffffffffffffffffffffffffffffffffff168152602001908152602001600020546105fe9190611d17565b4210159050919050565b60006012905090565b600560009054906101000a900473ffffffffffffffffffffffffffffffffffffffff1673ffffffffffffffffffffffffffffffffffffffff163373ffffffffffffffffffffffffffffffffffffffff161461066b57600080fd5b610675828261131e565b5050565b6000610684826106c6565b9050919050565b600960205281600052604060002081805160208101820180518482526020830160208501208183528095505050505050600091509150505481565b60008060008373ffffffffffffffffffffffffffffffffffffffff1673ffffffffffffffffffffffffffffffffffffffff168152602001908152602001600020549050919050565b6000808311610752576040517f08c379a000000000000000000000000000000000000000000000000000000000815260040161074990611dbd565b60405180910390fd5b600560009054906101000a900473ffffffffffffffffffffffffffffffffffffffff1673ffffffffffffffffffffffffffffffffffffffff163373ffffffffffffffffffffffffffffffffffffffff16146107e2576040517f08c379a00000000000000000000000000000000000000000000000000000000081526004016107d990611e29565b60405180910390fd5b8261080e600560009054906101000a900473ffffffffffffffffffffffffffffffffffffffff166106c6565b101561084f576040517f08c379a000000000000000000000000000000000000000000000000000000000815260040161084690611e95565b60405180910390fd5b6108598284611072565b506000610865836106c6565b905083816108739190611d17565b905060006108a2600560009054906101000a900473ffffffffffffffffffffffffffffffffffffffff166106c6565b905084816108b09190611eb5565b9050848473ffffffffffffffffffffffffffffffffffffffff167fb3b7a071186534c03b40695710096f289fd4ed6c1a374aff0bb648955e4fe56360405160405180910390a38373ffffffffffffffffffffffffffffffffffffffff16600560009054906101000a900473ffffffffffffffffffffffffffffffffffffffff1673ffffffffffffffffffffffffffffffffffffffff167fddf252ad1be2c89b69c2b068fc378daa952ba7f163c4a11628f55a4df523b3ef87604051610975919061197b565b60405180910390a360019250505092915050565b6001600960008473ffffffffffffffffffffffffffffffffffffffff1673ffffffffffffffffffffffffffffffffffffffff168152602001908152602001600020826040516109d89190611f25565b908152602001604051809103902060008282546109f59190611d17565b925050819055508173ffffffffffffffffffffffffffffffffffffffff167f3e3ca4d711a9ca31bba278d353ddf6c9240e963263d418923ceb128145ef28c782600960008673ffffffffffffffffffffffffffffffffffffffff1673ffffffffffffffffffffffffffffffffffffffff16815260200190815260200160002084604051610a829190611f25565b908152602001604051809103902054604051610a9f929190611f3c565b60405180910390a26064600a60008473ffffffffffffffffffffffffffffffffffffffff1673ffffffffffffffffffffffffffffffffffffffff16815260200190815260200160002082604051610af69190611f25565b908152602001604051809103902054600960008573ffffffffffffffffffffffffffffffffffffffff1673ffffffffffffffffffffffffffffffffffffffff16815260200190815260200160002083604051610b529190611f25565b908152602001604051809103902054610b6b9190611eb5565b10610c3957610b7c6006548361070e565b50600960008373ffffffffffffffffffffffffffffffffffffffff1673ffffffffffffffffffffffffffffffffffffffff16815260200190815260200160002081604051610bca9190611f25565b908152602001604051809103902054600a60008473ffffffffffffffffffffffffffffffffffffffff1673ffffffffffffffffffffffffffffffffffffffff16815260200190815260200160002082604051610c269190611f25565b9081526020016040518091039020819055505b5050565b600560009054906101000a900473ffffffffffffffffffffffffffffffffffffffff1681565b606060048054610c7290611cb7565b80601f0160208091040260200160405190810160405280929190818152602001828054610c9e90611cb7565b8015610ceb5780601f10610cc057610100808354040283529160200191610ceb565b820191906000526020600020905b815481529060010190602001808311610cce57829003601f168201915b5050505050905090565b6000600960008473ffffffffffffffffffffffffffffffffffffffff1673ffffffffffffffffffffffffffffffffffffffff16815260200190815260200160002082604051610d449190611f25565b908152602001604051809103902054905092915050565b6000600560009054906101000a900473ffffffffffffffffffffffffffffffffffffffff1673ffffffffffffffffffffffffffffffffffffffff163373ffffffffffffffffffffffffffffffffffffffff1614610ded576040517f08c379a0000000000000000000000000000000000000000000000000000000008152600401610de490611e29565b60405180910390fd5b600654610e1b600560009054906101000a900473ffffffffffffffffffffffffffffffffffffffff166106c6565b1015610e5c576040517f08c379a0000000000000000000000000000000000000000000000000000000008152600401610e5390611fde565b60405180910390fd5b600754600860008473ffffffffffffffffffffffffffffffffffffffff1673ffffffffffffffffffffffffffffffffffffffff16815260200190815260200160002054610ea99190611d17565b421015610eeb576040517f08c379a0000000000000000000000000000000000000000000000000000000008152600401610ee29061204a565b60405180910390fd5b610ef782600654611072565b506000610f03836106c6565b905060065481610f139190611d17565b90506000610f42600560009054906101000a900473ffffffffffffffffffffffffffffffffffffffff166106c6565b905060065481610f529190611eb5565b905042600860008673ffffffffffffffffffffffffffffffffffffffff1673ffffffffffffffffffffffffffffffffffffffff168152602001908152602001600020819055506006548473ffffffffffffffffffffffffffffffffffffffff167fb3b7a071186534c03b40695710096f289fd4ed6c1a374aff0bb648955e4fe56360405160405180910390a38373ffffffffffffffffffffffffffffffffffffffff16600560009054906101000a900473ffffffffffffffffffffffffffffffffffffffff1673ffffffffffffffffffffffffffffffffffffffff167fddf252ad1be2c89b69c2b068fc378daa952ba7f163c4a11628f55a4df523b3ef60065460405161105f919061197b565b60405180910390a3600192505050919050565b60008061107d61117b565b905061108a81858561122a565b600191505092915050565b60075481565b6000600160008473ffffffffffffffffffffffffffffffffffffffff1673ffffffffffffffffffffffffffffffffffffffff16815260200190815260200160002060008373ffffffffffffffffffffffffffffffffffffffff1673ffffffffffffffffffffffffffffffffffffffff16815260200190815260200160002054905092915050565b60065481565b60086020528060005260406000206000915090505481565b600a60205281600052604060002081805160208101820180518482526020830160208501208183528095505050505050600091509150505481565b600033905090565b61119083838360016113a0565b505050565b60006111a1848461109b565b90507fffffffffffffffffffffffffffffffffffffffffffffffffffffffffffffffff8110156112245781811015611214578281836040517ffb8f41b200000000000000000000000000000000000000000000000000000000815260040161120b9392919061206a565b60405180910390fd5b611223848484840360006113a0565b5b50505050565b600073ffffffffffffffffffffffffffffffffffffffff168373ffffffffffffffffffffffffffffffffffffffff160361129c5760006040517f96c6fd1e0000000000000000000000000000000000000000000000000000000081526004016112939190611c2d565b60405180910390fd5b600073ffffffffffffffffffffffffffffffffffffffff168273ffffffffffffffffffffffffffffffffffffffff160361130e5760006040517fec442f050000000000000000000000000000000000000000000000000000000081526004016113059190611c2d565b60405180910390fd5b611319838383611577565b505050565b600073ffffffffffffffffffffffffffffffffffffffff168273ffffffffffffffffffffffffffffffffffffffff16036113905760006040517fec442f050000000000000000000000000000000000000000000000000000000081526004016113879190611c2d565b60405180910390fd5b61139c60008383611577565b5050565b600073ffffffffffffffffffffffffffffffffffffffff168473ffffffffffffffffffffffffffffffffffffffff16036114125760006040517fe602df050000000000000000000000000000000000000000000000000000000081526004016114099190611c2d565b60405180910390fd5b600073ffffffffffffffffffffffffffffffffffffffff168373ffffffffffffffffffffffffffffffffffffffff16036114845760006040517f94280d6200000000000000000000000000000000000000000000000000000000815260040161147b9190611c2d565b60405180910390fd5b81600160008673ffffffffffffffffffffffffffffffffffffffff1673ffffffffffffffffffffffffffffffffffffffff16815260200190815260200160002060008573ffffffffffffffffffffffffffffffffffffffff1673ffffffffffffffffffffffffffffffffffffffff168152602001908152602001600020819055508015611571578273ffffffffffffffffffffffffffffffffffffffff168473ffffffffffffffffffffffffffffffffffffffff167f8c5be1e5ebec7d5bd14f71427d1e84f3dd0314c0f7b2291e5b200ac8c7c3b92584604051611568919061197b565b60405180910390a35b50505050565b600073ffffffffffffffffffffffffffffffffffffffff168373ffffffffffffffffffffffffffffffffffffffff16036115c95780600260008282546115bd9190611d17565b9250508190555061169c565b60008060008573ffffffffffffffffffffffffffffffffffffffff1673ffffffffffffffffffffffffffffffffffffffff16815260200190815260200160002054905081811015611655578381836040517fe450d38c00000000000000000000000000000000000000000000000000000000815260040161164c9392919061206a565b60405180910390fd5b8181036000808673ffffffffffffffffffffffffffffffffffffffff1673ffffffffffffffffffffffffffffffffffffffff16815260200190815260200160002081905550505b600073ffffffffffffffffffffffffffffffffffffffff168273ffffffffffffffffffffffffffffffffffffffff16036116e55780600260008282540392505081905550611732565b806000808473ffffffffffffffffffffffffffffffffffffffff1673ffffffffffffffffffffffffffffffffffffffff168152602001908152602001600020600082825401925050819055505b8173ffffffffffffffffffffffffffffffffffffffff168373ffffffffffffffffffffffffffffffffffffffff167fddf252ad1be2c89b69c2b068fc378daa952ba7f163c4a11628f55a4df523b3ef8360405161178f919061197b565b60405180910390a3505050565b600081519050919050565b600082825260208201905092915050565b60005b838110156117d65780820151818401526020810190506117bb565b60008484015250505050565b6000601f19601f8301169050919050565b60006117fe8261179c565b61180881856117a7565b93506118188185602086016117b8565b611821816117e2565b840191505092915050565b6000602082019050818103600083015261184681846117f3565b905092915050565b6000604051905090565b600080fd5b600080fd5b600073ffffffffffffffffffffffffffffffffffffffff82169050919050565b600061188d82611862565b9050919050565b61189d81611882565b81146118a857600080fd5b50565b6000813590506118ba81611894565b92915050565b6000819050919050565b6118d3816118c0565b81146118de57600080fd5b50565b6000813590506118f0816118ca565b92915050565b6000806040838503121561190d5761190c611858565b5b600061191b858286016118ab565b925050602061192c858286016118e1565b9150509250929050565b60008115159050919050565b61194b81611936565b82525050565b60006020820190506119666000830184611942565b92915050565b611975816118c0565b82525050565b6000602082019050611990600083018461196c565b92915050565b6000806000606084860312156119af576119ae611858565b5b60006119bd868287016118ab565b93505060206119ce868287016118ab565b92505060406119df868287016118e1565b9150509250925092565b6000602082840312156119ff576119fe611858565b5b6000611a0d848285016118ab565b91505092915050565b600060ff82169050919050565b611a2c81611a16565b82525050565b6000602082019050611a476000830184611a23565b92915050565b600080fd5b600080fd5b7f4e487b7100000000000000000000000000000000000000000000000000000000600052604160045260246000fd5b611a8f826117e2565b810181811067ffffffffffffffff82111715611aae57611aad611a57565b5b80604052505050565b6000611ac161184e565b9050611acd8282611a86565b919050565b600067ffffffffffffffff821115611aed57611aec611a57565b5b611af6826117e2565b9050602081019050919050565b82818337600083830152505050565b6000611b25611b2084611ad2565b611ab7565b905082815260208101848484011115611b4157611b40611a52565b5b611b4c848285611b03565b509392505050565b600082601f830112611b6957611b68611a4d565b5b8135611b79848260208601611b12565b91505092915050565b60008060408385031215611b9957611b98611858565b5b6000611ba7858286016118ab565b925050602083013567ffffffffffffffff811115611bc857611bc761185d565b5b611bd485828601611b54565b9150509250929050565b60008060408385031215611bf557611bf4611858565b5b6000611c03858286016118e1565b9250506020611c14858286016118ab565b9150509250929050565b611c2781611882565b82525050565b6000602082019050611c426000830184611c1e565b92915050565b60008060408385031215611c5f57611c5e611858565b5b6000611c6d858286016118ab565b9250506020611c7e858286016118ab565b9150509250929050565b7f4e487b7100000000000000000000000000000000000000000000000000000000600052602260045260246000fd5b60006002820490506001821680611ccf57607f821691505b602082108103611ce257611ce1611c88565b5b50919050565b7f4e487b7100000000000000000000000000000000000000000000000000000000600052601160045260246000fd5b6000611d22826118c0565b9150611d2d836118c0565b9250828201905080821115611d4557611d44611ce8565b5b92915050565b7f52657761726420616d6f756e74206d757374206265206772656174657220746860008201527f616e203000000000000000000000000000000000000000000000000000000000602082015250565b6000611da76024836117a7565b9150611db282611d4b565b604082019050919050565b60006020820190508181036000830152611dd681611d9a565b9050919050565b7f4f6e6c79206f776e65722063616e207265776172640000000000000000000000600082015250565b6000611e136015836117a7565b9150611e1e82611ddd565b602082019050919050565b60006020820190508181036000830152611e4281611e06565b9050919050565b7f696e73756666696369656e7420616d6f756e7400000000000000000000000000600082015250565b6000611e7f6013836117a7565b9150611e8a82611e49565b602082019050919050565b60006020820190508181036000830152611eae81611e72565b9050919050565b6000611ec0826118c0565b9150611ecb836118c0565b9250828203905081811115611ee357611ee2611ce8565b5b92915050565b600081905092915050565b6000611eff8261179c565b611f098185611ee9565b9350611f198185602086016117b8565b80840191505092915050565b6000611f318284611ef4565b915081905092915050565b60006040820190508181036000830152611f5681856117f3565b9050611f65602083018461196c565b9392505050565b7f496e73756666696369656e74207265776172642062616c616e636520666f722060008201527f746865206f776e65720000000000000000000000000000000000000000000000602082015250565b6000611fc86029836117a7565b9150611fd382611f6c565b604082019050919050565b60006020820190508181036000830152611ff781611fbb565b9050919050565b7f52657761726420616c726561647920636c61696d656420746f64617900000000600082015250565b6000612034601c836117a7565b915061203f82611ffe565b602082019050919050565b6000602082019050818103600083015261206381612027565b9050919050565b600060608201905061207f6000830186611c1e565b61208c602083018561196c565b612099604083018461196c565b94935050505056fea2646970667358221220b17767b86bee40c0de3d75d9d56a30f5c3cf933dfb3d047125e17ac4edd36fc564736f6c634300081c0033",
  "linkReferences": {},
  "deployedLinkReferences": {}
}